{"contracts/PerpifyReopen.sol":{"PerpifyReopen":{"abi":[{"inputs":[],"stateMutability":"nonpayable","type":"constructor"},{"anonymous":false,"inputs":[{"indexed":true,"internalType":"uint256","name":"posId","type":"uint256"},{"indexed":false,"internalType":"uint256","name":"oldMargin","type":"uint256"},{"indexed":false,"internalType":"uint256","name":"newMarginRequired","type":"uint256"},{"indexed":false,"internalType":"enum PerpifyReopen.RiskTier","name":"riskTier","type":"uint8"}],"name":"GapAwareMarginApplied","type":"event"},{"anonymous":false,"inputs":[{"indexed":false,"internalType":"uint256","name":"totalOI","type":"uint256"},{"indexed":false,"internalType":"uint256","name":"shieldFund","type":"uint256"},{"indexed":false,"internalType":"uint256","name":"timestamp","type":"uint256"}],"name":"MarketClosed","type":"event"},{"anonymous":false,"inputs":[{"indexed":true,"internalType":"uint256","name":"posId","type":"uint256"},{"indexed":true,"internalType":"address","name":"trader","type":"address"},{"indexed":false,"internalType":"uint256","name":"payout","type":"uint256"},{"indexed":false,"internalType":"uint256","name":"badDebtGenerated","type":"uint256"}],"name":"PositionCleared","type":"event"},{"anonymous":false,"inputs":[{"indexed":true,"internalType":"uint256","name":"posId","type":"uint256"},{"indexed":true,"internalType":"address","name":"trader","type":"address"},{"indexed":false,"internalType":"uint256","name":"notional","type":"uint256"},{"indexed":false,"internalType":"uint256","name":"margin","type":"uint256"},{"indexed":false,"internalType":"uint256","name":"leverage","type":"uint256"},{"indexed":false,"internalType":"bool","name":"isLong","type":"bool"},{"indexed":false,"internalType":"enum PerpifyReopen.RiskTier","name":"riskTier","type":"uint8"}],"name":"PositionOpened","type":"event"},{"anonymous":false,"inputs":[{"indexed":true,"internalType":"uint256","name":"posId","type":"uint256"},{"indexed":false,"internalType":"enum PerpifyReopen.RiskTier","name":"riskTier","type":"uint8"},{"indexed":false,"internalType":"uint256","name":"loss","type":"uint256"},{"indexed":false,"internalType":"bool","name":"coveredByMargin","type":"bool"},{"indexed":false,"internalType":"uint256","name":"shieldUsed","type":"uint256"}],"name":"PositionSequenced","type":"event"},{"anonymous":false,"inputs":[{"indexed":false,"internalType":"uint256","name":"totalPositionsCleared","type":"uint256"},{"indexed":false,"internalType":"uint256","name":"totalBadDebt","type":"uint256"},{"indexed":false,"internalType":"uint256","name":"shieldUsed","type":"uint256"},{"indexed":false,"internalType":"uint256","name":"shieldUsedBps","type":"uint256"},{"indexed":false,"internalType":"bool","name":"protocolSolvent","type":"bool"}],"name":"ReopenComplete","type":"event"},{"anonymous":false,"inputs":[{"indexed":false,"internalType":"int256","name":"gapBps","type":"int256"},{"indexed":false,"internalType":"uint256","name":"reopenPrice","type":"uint256"},{"indexed":false,"internalType":"uint256","name":"timestamp","type":"uint256"}],"name":"ReopenInitiated","type":"event"},{"inputs":[],"name":"BASE_IMR_BPS","outputs":[{"internalType":"uint256","name":"","type":"uint256"}],"stateMutability":"view","type":"function"},{"inputs":[],"name":"BPS","outputs":[{"internalType":"uint256","name":"","type":"uint256"}],"stateMutability":"view","type":"function"},{"inputs":[],"name":"GAP_IMR_BPS","outputs":[{"internalType":"uint256","name":"","type":"uint256"}],"stateMutability":"view","type":"function"},{"inputs":[],"name":"MAX_LEVERAGE","outputs":[{"internalType":"uint256","name":"","type":"uint256"}],"stateMutability":"view","type":"function"},{"inputs":[],"name":"SHIELD_BPS","outputs":[{"internalType":"uint256","name":"","type":"uint256"}],"stateMutability":"view","type":"function"},{"inputs":[],"name":"badDebt","outputs":[{"internalType":"uint256","name":"","type":"uint256"}],"stateMutability":"view","type":"function"},{"inputs":[],"name":"closeMarket","outputs":[],"stateMutability":"nonpayable","type":"function"},{"inputs":[],"name":"fundShield","outputs":[],"stateMutability":"payable","type":"function"},{"inputs":[],"name":"getOpenPositionCount","outputs":[{"internalType":"uint256","name":"count","type":"uint256"}],"stateMutability":"view","type":"function"},{"inputs":[{"internalType":"uint256","name":"pid","type":"uint256"}],"name":"getPosition","outputs":[{"components":[{"internalType":"address","name":"trader","type":"address"},{"internalType":"uint256","name":"notional","type":"uint256"},{"internalType":"uint256","name":"margin","type":"uint256"},{"internalType":"uint256","name":"leverage","type":"uint256"},{"internalType":"bool","name":"isLong","type":"bool"},{"internalType":"bool","name":"isOpen","type":"bool"},{"internalType":"enum PerpifyReopen.RiskTier","name":"riskTier","type":"uint8"},{"internalType":"uint256","name":"gapAwareMargin","type":"uint256"}],"internalType":"struct PerpifyReopen.Position","name":"","type":"tuple"}],"stateMutability":"view","type":"function"},{"inputs":[],"name":"getShieldStatus","outputs":[{"internalType":"uint256","name":"fund","type":"uint256"},{"internalType":"uint256","name":"debt","type":"uint256"},{"internalType":"uint256","name":"usedBps","type":"uint256"}],"stateMutability":"view","type":"function"},{"inputs":[],"name":"marketState","outputs":[{"internalType":"enum PerpifyReopen.MarketState","name":"","type":"uint8"}],"stateMutability":"view","type":"function"},{"inputs":[{"internalType":"uint256","name":"notionalUSD","type":"uint256"},{"internalType":"uint256","name":"leverage","type":"uint256"},{"internalType":"bool","name":"isLong","type":"bool"},{"internalType":"enum PerpifyReopen.RiskTier","name":"riskTier","type":"uint8"}],"name":"openPosition","outputs":[{"internalType":"uint256","name":"posId","type":"uint256"}],"stateMutability":"payable","type":"function"},{"inputs":[{"internalType":"uint256","name":"","type":"uint256"}],"name":"openPositionIds","outputs":[{"internalType":"uint256","name":"","type":"uint256"}],"stateMutability":"view","type":"function"},{"inputs":[],"name":"owner","outputs":[{"internalType":"address","name":"","type":"address"}],"stateMutability":"view","type":"function"},{"inputs":[],"name":"positionCount","outputs":[{"internalType":"uint256","name":"","type":"uint256"}],"stateMutability":"view","type":"function"},{"inputs":[{"internalType":"uint256","name":"","type":"uint256"}],"name":"positions","outputs":[{"internalType":"address","name":"trader","type":"address"},{"internalType":"uint256","name":"notional","type":"uint256"},{"internalType":"uint256","name":"margin","type":"uint256"},{"internalType":"uint256","name":"leverage","type":"uint256"},{"internalType":"bool","name":"isLong","type":"bool"},{"internalType":"bool","name":"isOpen","type":"bool"},{"internalType":"enum PerpifyReopen.RiskTier","name":"riskTier","type":"uint8"},{"internalType":"uint256","name":"gapAwareMargin","type":"uint256"}],"stateMutability":"view","type":"function"},{"inputs":[],"name":"shieldFund","outputs":[{"internalType":"uint256","name":"","type":"uint256"}],"stateMutability":"view","type":"function"},{"inputs":[],"name":"totalOI","outputs":[{"internalType":"uint256","name":"","type":"uint256"}],"stateMutability":"view","type":"function"},{"inputs":[{"internalType":"int256","name":"gapBps","type":"int256"},{"internalType":"uint256","name":"basePrice","type":"uint256"}],"name":"triggerReopen","outputs":[],"stateMutability":"nonpayable","type":"function"},{"stateMutability":"payable","type":"receive"}],"evm":{"bytecode":{"linkReferences":{},"object":"608060405234801561001057600080fd5b50336000806101000a81548173ffffffffffffffffffffffffffffffffffffffff021916908373ffffffffffffffffffffffffffffffffffffffff16021790555060008060146101000a81548160ff0219169083600281111561007657610075610080565b5b02179055506100af565b7f4e487b7100000000000000000000000000000000000000000000000000000000600052602160045260246000fd5b61239e806100be6000396000f3fe6080604052600436106101235760003560e01c80638da5cb5b116100a0578063d05ead4d11610064578063d05ead4d1461039d578063e7702d05146103da578063eb02c30114610405578063eea0473214610442578063f1a4ab771461046d5761012a565b80638da5cb5b146102c157806399fbab88146102ec5780639b45ec9714610330578063bbcac5571461035b578063c511ed5e146103865761012a565b80634d96faac116100e75780634d96faac1461020b57806360b7cfc6146102155780636b91f1241461023e57806370e3a16e146102695780637fad9e17146102965761012a565b806308fb1b771461012f578063249d39e91461015a5780632734156a14610185578063443295dc146101b05780634be5126b146101db5761012a565b3661012a57005b600080fd5b34801561013b57600080fd5b50610144610498565b60405161015191906118b7565b60405180910390f35b34801561016657600080fd5b5061016f6104ab565b60405161017c91906118eb565b60405180910390f35b34801561019157600080fd5b5061019a6104b1565b6040516101a791906118eb565b60405180910390f35b3480156101bc57600080fd5b506101c56104b7565b6040516101d291906118eb565b60405180910390f35b6101f560048036038101906101f09190611994565b6104bd565b60405161020291906118eb565b60405180910390f35b61021361088b565b005b34801561022157600080fd5b5061023c60048036038101906102379190611a31565b6108a6565b005b34801561024a57600080fd5b50610253610df9565b60405161026091906118eb565b60405180910390f35b34801561027557600080fd5b5061027e610dff565b60405161028d93929190611a71565b60405180910390f35b3480156102a257600080fd5b506102ab610e60565b6040516102b891906118eb565b60405180910390f35b3480156102cd57600080fd5b506102d6610ee2565b6040516102e39190611ae9565b60405180910390f35b3480156102f857600080fd5b50610313600480360381019061030e9190611b04565b610f06565b604051610327989796959493929190611b88565b60405180910390f35b34801561033c57600080fd5b50610345610f95565b60405161035291906118eb565b60405180910390f35b34801561036757600080fd5b50610370610f9a565b60405161037d91906118eb565b60405180910390f35b34801561039257600080fd5b5061039b610fa0565b005b3480156103a957600080fd5b506103c460048036038101906103bf9190611b04565b61128c565b6040516103d191906118eb565b60405180910390f35b3480156103e657600080fd5b506103ef6112b0565b6040516103fc91906118eb565b60405180910390f35b34801561041157600080fd5b5061042c60048036038101906104279190611b04565b6112b6565b6040516104399190611ce4565b60405180910390f35b34801561044e57600080fd5b506104576113d3565b60405161046491906118eb565b60405180910390f35b34801561047957600080fd5b506104826113d9565b60405161048f91906118eb565b60405180910390f35b600060149054906101000a900460ff1681565b61271081565b6101f481565b60015481565b6000808060028111156104d3576104d2611840565b5b600060149054906101000a900460ff1660028111156104f5576104f4611840565b5b14610535576040517f08c379a000000000000000000000000000000000000000000000000000000000815260040161052c90611d5d565b60405180910390fd5b60018510158015610547575060068511155b610586576040517f08c379a000000000000000000000000000000000000000000000000000000000815260040161057d90611dc9565b60405180910390fd5b600086116105c9576040517f08c379a00000000000000000000000000000000000000000000000000000000081526004016105c090611e35565b60405180910390fd5b60006105d68460006113df565b9050600061271082896105e99190611e84565b6105f39190611ef5565b905080341015610638576040517f08c379a000000000000000000000000000000000000000000000000000000000815260040161062f90611f72565b60405180910390fd5b6004600081548092919061064b90611f92565b9190505593506040518061010001604052803373ffffffffffffffffffffffffffffffffffffffff16815260200189815260200134815260200188815260200187151581526020016001151581526020018660028111156106af576106ae611840565b5b815260200160008152506005600086815260200190815260200160002060008201518160000160006101000a81548173ffffffffffffffffffffffffffffffffffffffff021916908373ffffffffffffffffffffffffffffffffffffffff16021790555060208201518160010155604082015181600201556060820151816003015560808201518160040160006101000a81548160ff02191690831515021790555060a08201518160040160016101000a81548160ff02191690831515021790555060c08201518160040160026101000a81548160ff0219169083600281111561079c5761079b611840565b5b021790555060e08201518160050155905050600684908060018154018082558091505060019003906000526020600020016000909190919091505587600160008282546107e99190611fda565b9250508190555060006127106101f48a6108039190611e84565b61080d9190611ef5565b905080600260008282546108219190611fda565b925050819055503373ffffffffffffffffffffffffffffffffffffffff16857fc00d5858322948e178ae7e778f572437cf202774e6b789f96e273f90125dce408b348c8c8c60405161087795949392919061200e565b60405180910390a350505050949350505050565b346002600082825461089d9190611fda565b92505081905550565b60008054906101000a900473ffffffffffffffffffffffffffffffffffffffff1673ffffffffffffffffffffffffffffffffffffffff163373ffffffffffffffffffffffffffffffffffffffff1614610934576040517f08c379a000000000000000000000000000000000000000000000000000000000815260040161092b906120ad565b60405180910390fd5b600180600281111561094957610948611840565b5b600060149054906101000a900460ff16600281111561096b5761096a611840565b5b146109ab576040517f08c379a00000000000000000000000000000000000000000000000000000000081526004016109a290611d5d565b60405180910390fd5b6002600060146101000a81548160ff021916908360028111156109d1576109d0611840565b5b0217905550600080841215610a29576000612710856109ef906120cd565b856109fa9190611e84565b610a049190611ef5565b9050808411610a14576000610a21565b8084610a209190612115565b5b915050610a50565b6127108484610a389190611e84565b610a429190611ef5565b83610a4d9190611fda565b90505b7f5afbbb5f838cf27e93274332d373b8886b37d218281254781de6ce10d45ed0be848242604051610a8393929190612158565b60405180910390a16000805b600680549050811015610b6857600060068281548110610ab257610ab161218f565b5b906000526020600020015490506005600082815260200190815260200160002060040160019054906101000a900460ff168015610b355750600280811115610afd57610afc611840565b5b6005600083815260200190815260200160002060040160029054906101000a900460ff166002811115610b3357610b32611840565b5b145b15610b5457610b45818886611480565b8280610b5090611f92565b9350505b508080610b6090611f92565b915050610a8f565b5060005b600680549050811015610c4657600060068281548110610b8f57610b8e61218f565b5b906000526020600020015490506005600082815260200190815260200160002060040160019054906101000a900460ff168015610c13575060016002811115610bdb57610bda611840565b5b6005600083815260200190815260200160002060040160029054906101000a900460ff166002811115610c1157610c10611840565b5b145b15610c3257610c23818886611480565b8280610c2e90611f92565b9350505b508080610c3e90611f92565b915050610b6c565b5060005b600680549050811015610d2457600060068281548110610c6d57610c6c61218f565b5b906000526020600020015490506005600082815260200190815260200160002060040160019054906101000a900460ff168015610cf1575060006002811115610cb957610cb8611840565b5b6005600083815260200190815260200160002060040160029054906101000a900460ff166002811115610cef57610cee611840565b5b145b15610d1057610d01818886611480565b8280610d0c90611f92565b9350505b508080610d1c90611f92565b915050610c4a565b506000600354905060006127106101f4600154610d419190611e84565b610d4b9190611ef5565b90506000808211610d5d576000610d77565b8161271084610d6c9190611e84565b610d769190611ef5565b5b9050600060025484111590507f74e9de568443f686faa37f289db8d7e6aab7dc741d27a77761795c66f2b993ac85600354868585604051610dbc9594939291906121be565b60405180910390a160008060146101000a81548160ff02191690836002811115610de957610de8611840565b5b0217905550505050505050505050565b6103e881565b60008060006002549250600354915060006127106101f4600154610e239190611e84565b610e2d9190611ef5565b905060008111610e3e576000610e58565b8061271084610e4d9190611e84565b610e579190611ef5565b5b915050909192565b600080600090505b600680549050811015610ede576005600060068381548110610e8d57610e8c61218f565b5b9060005260206000200154815260200190815260200160002060040160019054906101000a900460ff1615610ecb578180610ec790611f92565b9250505b8080610ed690611f92565b915050610e68565b5090565b60008054906101000a900473ffffffffffffffffffffffffffffffffffffffff1681565b60056020528060005260406000206000915090508060000160009054906101000a900473ffffffffffffffffffffffffffffffffffffffff16908060010154908060020154908060030154908060040160009054906101000a900460ff16908060040160019054906101000a900460ff16908060040160029054906101000a900460ff16908060050154905088565b600681565b60035481565b60008054906101000a900473ffffffffffffffffffffffffffffffffffffffff1673ffffffffffffffffffffffffffffffffffffffff163373ffffffffffffffffffffffffffffffffffffffff161461102e576040517f08c379a0000000000000000000000000000000000000000000000000000000008152600401611025906120ad565b60405180910390fd5b600080600281111561104357611042611840565b5b600060149054906101000a900460ff16600281111561106557611064611840565b5b146110a5576040517f08c379a000000000000000000000000000000000000000000000000000000000815260040161109c90611d5d565b60405180910390fd5b6001600060146101000a81548160ff021916908360028111156110cb576110ca611840565b5b021790555060005b600680549050811015611249576000600682815481106110f6576110f561218f565b5b9060005260206000200154905060006005600083815260200190815260200160002090508060040160019054906101000a900460ff16611137575050611236565b60028081111561114a57611149611840565b5b8160040160029054906101000a900460ff16600281111561116e5761116d611840565b5b14806111af57506001600281111561118957611188611840565b5b8160040160029054906101000a900460ff1660028111156111ad576111ac611840565b5b145b1561123357600061271061051483600101546111cb9190611e84565b6111d59190611ef5565b9050808260050181905550827f6fa14ae11b94db41a3773f07e61cf83dc4bb21953dc36194b136cbd2414a9be78360020154838560040160029054906101000a900460ff1660405161122993929190612211565b60405180910390a2505b50505b808061124190611f92565b9150506110d3565b507fc50a97ba177c39ea2c7e22a47ce4f372a547ef09f5b4841741a6ad18074af0bd6001546002544260405161128193929190611a71565b60405180910390a150565b6006818154811061129c57600080fd5b906000526020600020016000915090505481565b60045481565b6112be6117cf565b60056000838152602001908152602001600020604051806101000160405290816000820160009054906101000a900473ffffffffffffffffffffffffffffffffffffffff1673ffffffffffffffffffffffffffffffffffffffff1673ffffffffffffffffffffffffffffffffffffffff1681526020016001820154815260200160028201548152602001600382015481526020016004820160009054906101000a900460ff161515151581526020016004820160019054906101000a900460ff161515151581526020016004820160029054906101000a900460ff1660028111156113ac576113ab611840565b5b60028111156113be576113bd611840565b5b81526020016005820154815250509050919050565b60025481565b61051481565b6000816113f0576103e8905061147a565b60028081111561140357611402611840565b5b83600281111561141657611415611840565b5b0361142557610514905061147a565b6001600281111561143957611438611840565b5b83600281111561144c5761144b611840565b5b036114745760026103e86105146114639190611fda565b61146d9190611ef5565b905061147a565b6103e890505b92915050565b60006005600085815260200190815260200160002090508060040160019054906101000a900460ff166114b357506117ca565b60008160040160016101000a81548160ff0219169083151502179055506000806000851280156114f157508260040160009054906101000a900460ff165b156115235761271085611503906120cd565b84600101546115129190611e84565b61151c9190611ef5565b9150611568565b60008513801561154257508260040160009054906101000a900460ff16155b156115675761271085846001015461155a9190611e84565b6115649190611ef5565b91505b5b600080600084111561161657838560020154106115965783856002015461158f9190612115565b9250611611565b60008560020154856115a89190612115565b90506000935080600254106115d85780600260008282546115c99190612115565b9250508190555080925061160f565b600254816115e69190612115565b91506002549250600060028190555081600360008282546116079190611fda565b925050819055505b505b61161e565b846002015492505b877f8ab5b36b559ab9fed828060435afafede115696040eea67092c273dc5de66db18660040160029054906101000a900460ff168688600201548811158660405161166c9493929190612248565b60405180910390a28460000160009054906101000a900473ffffffffffffffffffffffffffffffffffffffff1673ffffffffffffffffffffffffffffffffffffffff16887ff8c2ff1c67816aa62a24a2dcc922aa8780cd76d90b759eb7de8eb6d6517740c485846040516116e192919061228d565b60405180910390a360008311156117c45760008560000160009054906101000a900473ffffffffffffffffffffffffffffffffffffffff1673ffffffffffffffffffffffffffffffffffffffff168460405161173c906122e7565b60006040518083038185875af1925050503d8060008114611779576040519150601f19603f3d011682016040523d82523d6000602084013e61177e565b606091505b50509050806117c2576040517f08c379a00000000000000000000000000000000000000000000000000000000081526004016117b990612348565b60405180910390fd5b505b50505050505b505050565b604051806101000160405280600073ffffffffffffffffffffffffffffffffffffffff1681526020016000815260200160008152602001600081526020016000151581526020016000151581526020016000600281111561183357611832611840565b5b8152602001600081525090565b7f4e487b7100000000000000000000000000000000000000000000000000000000600052602160045260246000fd5b600381106118805761187f611840565b5b50565b60008190506118918261186f565b919050565b60006118a182611883565b9050919050565b6118b181611896565b82525050565b60006020820190506118cc60008301846118a8565b92915050565b6000819050919050565b6118e5816118d2565b82525050565b600060208201905061190060008301846118dc565b92915050565b600080fd5b611914816118d2565b811461191f57600080fd5b50565b6000813590506119318161190b565b92915050565b60008115159050919050565b61194c81611937565b811461195757600080fd5b50565b60008135905061196981611943565b92915050565b6003811061197c57600080fd5b50565b60008135905061198e8161196f565b92915050565b600080600080608085870312156119ae576119ad611906565b5b60006119bc87828801611922565b94505060206119cd87828801611922565b93505060406119de8782880161195a565b92505060606119ef8782880161197f565b91505092959194509250565b6000819050919050565b611a0e816119fb565b8114611a1957600080fd5b50565b600081359050611a2b81611a05565b92915050565b60008060408385031215611a4857611a47611906565b5b6000611a5685828601611a1c565b9250506020611a6785828601611922565b9150509250929050565b6000606082019050611a8660008301866118dc565b611a9360208301856118dc565b611aa060408301846118dc565b949350505050565b600073ffffffffffffffffffffffffffffffffffffffff82169050919050565b6000611ad382611aa8565b9050919050565b611ae381611ac8565b82525050565b6000602082019050611afe6000830184611ada565b92915050565b600060208284031215611b1a57611b19611906565b5b6000611b2884828501611922565b91505092915050565b611b3a81611937565b82525050565b60038110611b5157611b50611840565b5b50565b6000819050611b6282611b40565b919050565b6000611b7282611b54565b9050919050565b611b8281611b67565b82525050565b600061010082019050611b9e600083018b611ada565b611bab602083018a6118dc565b611bb860408301896118dc565b611bc560608301886118dc565b611bd26080830187611b31565b611bdf60a0830186611b31565b611bec60c0830185611b79565b611bf960e08301846118dc565b9998505050505050505050565b611c0f81611ac8565b82525050565b611c1e816118d2565b82525050565b611c2d81611937565b82525050565b611c3c81611b67565b82525050565b61010082016000820151611c596000850182611c06565b506020820151611c6c6020850182611c15565b506040820151611c7f6040850182611c15565b506060820151611c926060850182611c15565b506080820151611ca56080850182611c24565b5060a0820151611cb860a0850182611c24565b5060c0820151611ccb60c0850182611c33565b5060e0820151611cde60e0850182611c15565b50505050565b600061010082019050611cfa6000830184611c42565b92915050565b600082825260208201905092915050565b7f57726f6e67206d61726b65742073746174650000000000000000000000000000600082015250565b6000611d47601283611d00565b9150611d5282611d11565b602082019050919050565b60006020820190508181036000830152611d7681611d3a565b9050919050565b7f426164206c657665726167650000000000000000000000000000000000000000600082015250565b6000611db3600c83611d00565b9150611dbe82611d7d565b602082019050919050565b60006020820190508181036000830152611de281611da6565b9050919050565b7f5a65726f206e6f74696f6e616c00000000000000000000000000000000000000600082015250565b6000611e1f600d83611d00565b9150611e2a82611de9565b602082019050919050565b60006020820190508181036000830152611e4e81611e12565b9050919050565b7f4e487b7100000000000000000000000000000000000000000000000000000000600052601160045260246000fd5b6000611e8f826118d2565b9150611e9a836118d2565b9250828202611ea8816118d2565b91508282048414831517611ebf57611ebe611e55565b5b5092915050565b7f4e487b7100000000000000000000000000000000000000000000000000000000600052601260045260246000fd5b6000611f00826118d2565b9150611f0b836118d2565b925082611f1b57611f1a611ec6565b5b828204905092915050565b7f496e73756666696369656e74206d617267696e00000000000000000000000000600082015250565b6000611f5c601383611d00565b9150611f6782611f26565b602082019050919050565b60006020820190508181036000830152611f8b81611f4f565b9050919050565b6000611f9d826118d2565b91507fffffffffffffffffffffffffffffffffffffffffffffffffffffffffffffffff8203611fcf57611fce611e55565b5b600182019050919050565b6000611fe5826118d2565b9150611ff0836118d2565b925082820190508082111561200857612007611e55565b5b92915050565b600060a08201905061202360008301886118dc565b61203060208301876118dc565b61203d60408301866118dc565b61204a6060830185611b31565b6120576080830184611b79565b9695505050505050565b7f4e6f74206f776e65720000000000000000000000000000000000000000000000600082015250565b6000612097600983611d00565b91506120a282612061565b602082019050919050565b600060208201905081810360008301526120c68161208a565b9050919050565b60006120d8826119fb565b91507f8000000000000000000000000000000000000000000000000000000000000000820361210a57612109611e55565b5b816000039050919050565b6000612120826118d2565b915061212b836118d2565b925082820390508181111561214357612142611e55565b5b92915050565b612152816119fb565b82525050565b600060608201905061216d6000830186612149565b61217a60208301856118dc565b61218760408301846118dc565b949350505050565b7f4e487b7100000000000000000000000000000000000000000000000000000000600052603260045260246000fd5b600060a0820190506121d360008301886118dc565b6121e060208301876118dc565b6121ed60408301866118dc565b6121fa60608301856118dc565b6122076080830184611b31565b9695505050505050565b600060608201905061222660008301866118dc565b61223360208301856118dc565b6122406040830184611b79565b949350505050565b600060808201905061225d6000830187611b79565b61226a60208301866118dc565b6122776040830185611b31565b61228460608301846118dc565b95945050505050565b60006040820190506122a260008301856118dc565b6122af60208301846118dc565b9392505050565b600081905092915050565b50565b60006122d16000836122b6565b91506122dc826122c1565b600082019050919050565b60006122f2826122c4565b9150819050919050565b7f5472616e73666572206661696c65640000000000000000000000000000000000600082015250565b6000612332600f83611d00565b915061233d826122fc565b602082019050919050565b6000602082019050818103600083015261236181612325565b905091905056fea2646970667358221220c2274a9285b7dc7b412e502532de5b030da9bc09cb59c829496a24da94ea29a864736f6c63430008140033","opcodes":"PUSH1 0x80 PUSH1 0x40 MSTORE CALLVALUE DUP1 ISZERO PUSH2 0x10 JUMPI PUSH1 0x0 DUP1 REVERT JUMPDEST POP CALLER PUSH1 0x0 DUP1 PUSH2 0x100 EXP DUP2 SLOAD DUP2 PUSH20 0xFFFFFFFFFFFFFFFFFFFFFFFFFFFFFFFFFFFFFFFF MUL NOT AND SWAP1 DUP4 PUSH20 0xFFFFFFFFFFFFFFFFFFFFFFFFFFFFFFFFFFFFFFFF AND MUL OR SWAP1 SSTORE POP PUSH1 0x0 DUP1 PUSH1 0x14 PUSH2 0x100 EXP DUP2 SLOAD DUP2 PUSH1 0xFF MUL NOT AND SWAP1 DUP4 PUSH1 0x2 DUP2 GT ISZERO PUSH2 0x76 JUMPI PUSH2 0x75 PUSH2 0x80 JUMP JUMPDEST JUMPDEST MUL OR SWAP1 SSTORE POP PUSH2 0xAF JUMP JUMPDEST PUSH32 0x4E487B7100000000000000000000000000000000000000000000000000000000 PUSH1 0x0 MSTORE PUSH1 0x21 PUSH1 0x4 MSTORE PUSH1 0x24 PUSH1 0x0 REVERT JUMPDEST PUSH2 0x239E DUP1 PUSH2 0xBE PUSH1 0x0 CODECOPY PUSH1 0x0 RETURN INVALID PUSH1 0x80 PUSH1 0x40 MSTORE PUSH1 0x4 CALLDATASIZE LT PUSH2 0x123 JUMPI PUSH1 0x0 CALLDATALOAD PUSH1 0xE0 SHR DUP1 PUSH4 0x8DA5CB5B GT PUSH2 0xA0 JUMPI DUP1 PUSH4 0xD05EAD4D GT PUSH2 0x64 JUMPI DUP1 PUSH4 0xD05EAD4D EQ PUSH2 0x39D JUMPI DUP1 PUSH4 0xE7702D05 EQ PUSH2 0x3DA JUMPI DUP1 PUSH4 0xEB02C301 EQ PUSH2 0x405 JUMPI DUP1 PUSH4 0xEEA04732 EQ PUSH2 0x442 JUMPI DUP1 PUSH4 0xF1A4AB77 EQ PUSH2 0x46D JUMPI PUSH2 0x12A JUMP JUMPDEST DUP1 PUSH4 0x8DA5CB5B EQ PUSH2 0x2C1 JUMPI DUP1 PUSH4 0x99FBAB88 EQ PUSH2 0x2EC JUMPI DUP1 PUSH4 0x9B45EC97 EQ PUSH2 0x330 JUMPI DUP1 PUSH4 0xBBCAC557 EQ PUSH2 0x35B JUMPI DUP1 PUSH4 0xC511ED5E EQ PUSH2 0x386 JUMPI PUSH2 0x12A JUMP JUMPDEST DUP1 PUSH4 0x4D96FAAC GT PUSH2 0xE7 JUMPI DUP1 PUSH4 0x4D96FAAC EQ PUSH2 0x20B JUMPI DUP1 PUSH4 0x60B7CFC6 EQ PUSH2 0x215 JUMPI DUP1 PUSH4 0x6B91F124 EQ PUSH2 0x23E JUMPI DUP1 PUSH4 0x70E3A16E EQ PUSH2 0x269 JUMPI DUP1 PUSH4 0x7FAD9E17 EQ PUSH2 0x296 JUMPI PUSH2 0x12A JUMP JUMPDEST DUP1 PUSH4 0x8FB1B77 EQ PUSH2 0x12F JUMPI DUP1 PUSH4 0x249D39E9 EQ PUSH2 0x15A JUMPI DUP1 PUSH4 0x2734156A EQ PUSH2 0x185 JUMPI DUP1 PUSH4 0x443295DC EQ PUSH2 0x1B0 JUMPI DUP1 PUSH4 0x4BE5126B EQ PUSH2 0x1DB JUMPI PUSH2 0x12A JUMP JUMPDEST CALLDATASIZE PUSH2 0x12A JUMPI STOP JUMPDEST PUSH1 0x0 DUP1 REVERT JUMPDEST CALLVALUE DUP1 ISZERO PUSH2 0x13B JUMPI PUSH1 0x0 DUP1 REVERT JUMPDEST POP PUSH2 0x144 PUSH2 0x498 JUMP JUMPDEST PUSH1 0x40 MLOAD PUSH2 0x151 SWAP2 SWAP1 PUSH2 0x18B7 JUMP JUMPDEST PUSH1 0x40 MLOAD DUP1 SWAP2 SUB SWAP1 RETURN JUMPDEST CALLVALUE DUP1 ISZERO PUSH2 0x166 JUMPI PUSH1 0x0 DUP1 REVERT JUMPDEST POP PUSH2 0x16F PUSH2 0x4AB JUMP JUMPDEST PUSH1 0x40 MLOAD PUSH2 0x17C SWAP2 SWAP1 PUSH2 0x18EB JUMP JUMPDEST PUSH1 0x40 MLOAD DUP1 SWAP2 SUB SWAP1 RETURN JUMPDEST CALLVALUE DUP1 ISZERO PUSH2 0x191 JUMPI PUSH1 0x0 DUP1 REVERT JUMPDEST POP PUSH2 0x19A PUSH2 0x4B1 JUMP JUMPDEST PUSH1 0x40 MLOAD PUSH2 0x1A7 SWAP2 SWAP1 PUSH2 0x18EB JUMP JUMPDEST PUSH1 0x40 MLOAD DUP1 SWAP2 SUB SWAP1 RETURN JUMPDEST CALLVALUE DUP1 ISZERO PUSH2 0x1BC JUMPI PUSH1 0x0 DUP1 REVERT JUMPDEST POP PUSH2 0x1C5 PUSH2 0x4B7 JUMP JUMPDEST PUSH1 0x40 MLOAD PUSH2 0x1D2 SWAP2 SWAP1 PUSH2 0x18EB JUMP JUMPDEST PUSH1 0x40 MLOAD DUP1 SWAP2 SUB SWAP1 RETURN JUMPDEST PUSH2 0x1F5 PUSH1 0x4 DUP1 CALLDATASIZE SUB DUP2 ADD SWAP1 PUSH2 0x1F0 SWAP2 SWAP1 PUSH2 0x1994 JUMP JUMPDEST PUSH2 0x4BD JUMP JUMPDEST PUSH1 0x40 MLOAD PUSH2 0x202 SWAP2 SWAP1 PUSH2 0x18EB JUMP JUMPDEST PUSH1 0x40 MLOAD DUP1 SWAP2 SUB SWAP1 RETURN JUMPDEST PUSH2 0x213 PUSH2 0x88B JUMP JUMPDEST STOP JUMPDEST CALLVALUE DUP1 ISZERO PUSH2 0x221 JUMPI PUSH1 0x0 DUP1 REVERT JUMPDEST POP PUSH2 0x23C PUSH1 0x4 DUP1 CALLDATASIZE SUB DUP2 ADD SWAP1 PUSH2 0x237 SWAP2 SWAP1 PUSH2 0x1A31 JUMP JUMPDEST PUSH2 0x8A6 JUMP JUMPDEST STOP JUMPDEST CALLVALUE DUP1 ISZERO PUSH2 0x24A JUMPI PUSH1 0x0 DUP1 REVERT JUMPDEST POP PUSH2 0x253 PUSH2 0xDF9 JUMP JUMPDEST PUSH1 0x40 MLOAD PUSH2 0x260 SWAP2 SWAP1 PUSH2 0x18EB JUMP JUMPDEST PUSH1 0x40 MLOAD DUP1 SWAP2 SUB SWAP1 RETURN JUMPDEST CALLVALUE DUP1 ISZERO PUSH2 0x275 JUMPI PUSH1 0x0 DUP1 REVERT JUMPDEST POP PUSH2 0x27E PUSH2 0xDFF JUMP JUMPDEST PUSH1 0x40 MLOAD PUSH2 0x28D SWAP4 SWAP3 SWAP2 SWAP1 PUSH2 0x1A71 JUMP JUMPDEST PUSH1 0x40 MLOAD DUP1 SWAP2 SUB SWAP1 RETURN JUMPDEST CALLVALUE DUP1 ISZERO PUSH2 0x2A2 JUMPI PUSH1 0x0 DUP1 REVERT JUMPDEST POP PUSH2 0x2AB PUSH2 0xE60 JUMP JUMPDEST PUSH1 0x40 MLOAD PUSH2 0x2B8 SWAP2 SWAP1 PUSH2 0x18EB JUMP JUMPDEST PUSH1 0x40 MLOAD DUP1 SWAP2 SUB SWAP1 RETURN JUMPDEST CALLVALUE DUP1 ISZERO PUSH2 0x2CD JUMPI PUSH1 0x0 DUP1 REVERT JUMPDEST POP PUSH2 0x2D6 PUSH2 0xEE2 JUMP JUMPDEST PUSH1 0x40 MLOAD PUSH2 0x2E3 SWAP2 SWAP1 PUSH2 0x1AE9 JUMP JUMPDEST PUSH1 0x40 MLOAD DUP1 SWAP2 SUB SWAP1 RETURN JUMPDEST CALLVALUE DUP1 ISZERO PUSH2 0x2F8 JUMPI PUSH1 0x0 DUP1 REVERT JUMPDEST POP PUSH2 0x313 PUSH1 0x4 DUP1 CALLDATASIZE SUB DUP2 ADD SWAP1 PUSH2 0x30E SWAP2 SWAP1 PUSH2 0x1B04 JUMP JUMPDEST PUSH2 0xF06 JUMP JUMPDEST PUSH1 0x40 MLOAD PUSH2 0x327 SWAP9 SWAP8 SWAP7 SWAP6 SWAP5 SWAP4 SWAP3 SWAP2 SWAP1 PUSH2 0x1B88 JUMP JUMPDEST PUSH1 0x40 MLOAD DUP1 SWAP2 SUB SWAP1 RETURN JUMPDEST CALLVALUE DUP1 ISZERO PUSH2 0x33C JUMPI PUSH1 0x0 DUP1 REVERT JUMPDEST POP PUSH2 0x345 PUSH2 0xF95 JUMP JUMPDEST PUSH1 0x40 MLOAD PUSH2 0x352 SWAP2 SWAP1 PUSH2 0x18EB JUMP JUMPDEST PUSH1 0x40 MLOAD DUP1 SWAP2 SUB SWAP1 RETURN JUMPDEST CALLVALUE DUP1 ISZERO PUSH2 0x367 JUMPI PUSH1 0x0 DUP1 REVERT JUMPDEST POP PUSH2 0x370 PUSH2 0xF9A JUMP JUMPDEST PUSH1 0x40 MLOAD PUSH2 0x37D SWAP2 SWAP1 PUSH2 0x18EB JUMP JUMPDEST PUSH1 0x40 MLOAD DUP1 SWAP2 SUB SWAP1 RETURN JUMPDEST CALLVALUE DUP1 ISZERO PUSH2 0x392 JUMPI PUSH1 0x0 DUP1 REVERT JUMPDEST POP PUSH2 0x39B PUSH2 0xFA0 JUMP JUMPDEST STOP JUMPDEST CALLVALUE DUP1 ISZERO PUSH2 0x3A9 JUMPI PUSH1 0x0 DUP1 REVERT JUMPDEST POP PUSH2 0x3C4 PUSH1 0x4 DUP1 CALLDATASIZE SUB DUP2 ADD SWAP1 PUSH2 0x3BF SWAP2 SWAP1 PUSH2 0x1B04 JUMP JUMPDEST PUSH2 0x128C JUMP JUMPDEST PUSH1 0x40 MLOAD PUSH2 0x3D1 SWAP2 SWAP1 PUSH2 0x18EB JUMP JUMPDEST PUSH1 0x40 MLOAD DUP1 SWAP2 SUB SWAP1 RETURN JUMPDEST CALLVALUE DUP1 ISZERO PUSH2 0x3E6 JUMPI PUSH1 0x0 DUP1 REVERT JUMPDEST POP PUSH2 0x3EF PUSH2 0x12B0 JUMP JUMPDEST PUSH1 0x40 MLOAD PUSH2 0x3FC SWAP2 SWAP1 PUSH2 0x18EB JUMP JUMPDEST PUSH1 0x40 MLOAD DUP1 SWAP2 SUB SWAP1 RETURN JUMPDEST CALLVALUE DUP1 ISZERO PUSH2 0x411 JUMPI PUSH1 0x0 DUP1 REVERT JUMPDEST POP PUSH2 0x42C PUSH1 0x4 DUP1 CALLDATASIZE SUB DUP2 ADD SWAP1 PUSH2 0x427 SWAP2 SWAP1 PUSH2 0x1B04 JUMP JUMPDEST PUSH2 0x12B6 JUMP JUMPDEST PUSH1 0x40 MLOAD PUSH2 0x439 SWAP2 SWAP1 PUSH2 0x1CE4 JUMP JUMPDEST PUSH1 0x40 MLOAD DUP1 SWAP2 SUB SWAP1 RETURN JUMPDEST CALLVALUE DUP1 ISZERO PUSH2 0x44E JUMPI PUSH1 0x0 DUP1 REVERT JUMPDEST POP PUSH2 0x457 PUSH2 0x13D3 JUMP JUMPDEST PUSH1 0x40 MLOAD PUSH2 0x464 SWAP2 SWAP1 PUSH2 0x18EB JUMP JUMPDEST PUSH1 0x40 MLOAD DUP1 SWAP2 SUB SWAP1 RETURN JUMPDEST CALLVALUE DUP1 ISZERO PUSH2 0x479 JUMPI PUSH1 0x0 DUP1 REVERT JUMPDEST POP PUSH2 0x482 PUSH2 0x13D9 JUMP JUMPDEST PUSH1 0x40 MLOAD PUSH2 0x48F SWAP2 SWAP1 PUSH2 0x18EB JUMP JUMPDEST PUSH1 0x40 MLOAD DUP1 SWAP2 SUB SWAP1 RETURN JUMPDEST PUSH1 0x0 PUSH1 0x14 SWAP1 SLOAD SWAP1 PUSH2 0x100 EXP SWAP1 DIV PUSH1 0xFF AND DUP2 JUMP JUMPDEST PUSH2 0x2710 DUP2 JUMP JUMPDEST PUSH2 0x1F4 DUP2 JUMP JUMPDEST PUSH1 0x1 SLOAD DUP2 JUMP JUMPDEST PUSH1 0x0 DUP1 DUP1 PUSH1 0x2 DUP2 GT ISZERO PUSH2 0x4D3 JUMPI PUSH2 0x4D2 PUSH2 0x1840 JUMP JUMPDEST JUMPDEST PUSH1 0x0 PUSH1 0x14 SWAP1 SLOAD SWAP1 PUSH2 0x100 EXP SWAP1 DIV PUSH1 0xFF AND PUSH1 0x2 DUP2 GT ISZERO PUSH2 0x4F5 JUMPI PUSH2 0x4F4 PUSH2 0x1840 JUMP JUMPDEST JUMPDEST EQ PUSH2 0x535 JUMPI PUSH1 0x40 MLOAD PUSH32 0x8C379A000000000000000000000000000000000000000000000000000000000 DUP2 MSTORE PUSH1 0x4 ADD PUSH2 0x52C SWAP1 PUSH2 0x1D5D JUMP JUMPDEST PUSH1 0x40 MLOAD DUP1 SWAP2 SUB SWAP1 REVERT JUMPDEST PUSH1 0x1 DUP6 LT ISZERO DUP1 ISZERO PUSH2 0x547 JUMPI POP PUSH1 0x6 DUP6 GT ISZERO JUMPDEST PUSH2 0x586 JUMPI PUSH1 0x40 MLOAD PUSH32 0x8C379A000000000000000000000000000000000000000000000000000000000 DUP2 MSTORE PUSH1 0x4 ADD PUSH2 0x57D SWAP1 PUSH2 0x1DC9 JUMP JUMPDEST PUSH1 0x40 MLOAD DUP1 SWAP2 SUB SWAP1 REVERT JUMPDEST PUSH1 0x0 DUP7 GT PUSH2 0x5C9 JUMPI PUSH1 0x40 MLOAD PUSH32 0x8C379A000000000000000000000000000000000000000000000000000000000 DUP2 MSTORE PUSH1 0x4 ADD PUSH2 0x5C0 SWAP1 PUSH2 0x1E35 JUMP JUMPDEST PUSH1 0x40 MLOAD DUP1 SWAP2 SUB SWAP1 REVERT JUMPDEST PUSH1 0x0 PUSH2 0x5D6 DUP5 PUSH1 0x0 PUSH2 0x13DF JUMP JUMPDEST SWAP1 POP PUSH1 0x0 PUSH2 0x2710 DUP3 DUP10 PUSH2 0x5E9 SWAP2 SWAP1 PUSH2 0x1E84 JUMP JUMPDEST PUSH2 0x5F3 SWAP2 SWAP1 PUSH2 0x1EF5 JUMP JUMPDEST SWAP1 POP DUP1 CALLVALUE LT ISZERO PUSH2 0x638 JUMPI PUSH1 0x40 MLOAD PUSH32 0x8C379A000000000000000000000000000000000000000000000000000000000 DUP2 MSTORE PUSH1 0x4 ADD PUSH2 0x62F SWAP1 PUSH2 0x1F72 JUMP JUMPDEST PUSH1 0x40 MLOAD DUP1 SWAP2 SUB SWAP1 REVERT JUMPDEST PUSH1 0x4 PUSH1 0x0 DUP2 SLOAD DUP1 SWAP3 SWAP2 SWAP1 PUSH2 0x64B SWAP1 PUSH2 0x1F92 JUMP JUMPDEST SWAP2 SWAP1 POP SSTORE SWAP4 POP PUSH1 0x40 MLOAD DUP1 PUSH2 0x100 ADD PUSH1 0x40 MSTORE DUP1 CALLER PUSH20 0xFFFFFFFFFFFFFFFFFFFFFFFFFFFFFFFFFFFFFFFF AND DUP2 MSTORE PUSH1 0x20 ADD DUP10 DUP2 MSTORE PUSH1 0x20 ADD CALLVALUE DUP2 MSTORE PUSH1 0x20 ADD DUP9 DUP2 MSTORE PUSH1 0x20 ADD DUP8 ISZERO ISZERO DUP2 MSTORE PUSH1 0x20 ADD PUSH1 0x1 ISZERO ISZERO DUP2 MSTORE PUSH1 0x20 ADD DUP7 PUSH1 0x2 DUP2 GT ISZERO PUSH2 0x6AF JUMPI PUSH2 0x6AE PUSH2 0x1840 JUMP JUMPDEST JUMPDEST DUP2 MSTORE PUSH1 0x20 ADD PUSH1 0x0 DUP2 MSTORE POP PUSH1 0x5 PUSH1 0x0 DUP7 DUP2 MSTORE PUSH1 0x20 ADD SWAP1 DUP2 MSTORE PUSH1 0x20 ADD PUSH1 0x0 KECCAK256 PUSH1 0x0 DUP3 ADD MLOAD DUP2 PUSH1 0x0 ADD PUSH1 0x0 PUSH2 0x100 EXP DUP2 SLOAD DUP2 PUSH20 0xFFFFFFFFFFFFFFFFFFFFFFFFFFFFFFFFFFFFFFFF MUL NOT AND SWAP1 DUP4 PUSH20 0xFFFFFFFFFFFFFFFFFFFFFFFFFFFFFFFFFFFFFFFF AND MUL OR SWAP1 SSTORE POP PUSH1 0x20 DUP3 ADD MLOAD DUP2 PUSH1 0x1 ADD SSTORE PUSH1 0x40 DUP3 ADD MLOAD DUP2 PUSH1 0x2 ADD SSTORE PUSH1 0x60 DUP3 ADD MLOAD DUP2 PUSH1 0x3 ADD SSTORE PUSH1 0x80 DUP3 ADD MLOAD DUP2 PUSH1 0x4 ADD PUSH1 0x0 PUSH2 0x100 EXP DUP2 SLOAD DUP2 PUSH1 0xFF MUL NOT AND SWAP1 DUP4 ISZERO ISZERO MUL OR SWAP1 SSTORE POP PUSH1 0xA0 DUP3 ADD MLOAD DUP2 PUSH1 0x4 ADD PUSH1 0x1 PUSH2 0x100 EXP DUP2 SLOAD DUP2 PUSH1 0xFF MUL NOT AND SWAP1 DUP4 ISZERO ISZERO MUL OR SWAP1 SSTORE POP PUSH1 0xC0 DUP3 ADD MLOAD DUP2 PUSH1 0x4 ADD PUSH1 0x2 PUSH2 0x100 EXP DUP2 SLOAD DUP2 PUSH1 0xFF MUL NOT AND SWAP1 DUP4 PUSH1 0x2 DUP2 GT ISZERO PUSH2 0x79C JUMPI PUSH2 0x79B PUSH2 0x1840 JUMP JUMPDEST JUMPDEST MUL OR SWAP1 SSTORE POP PUSH1 0xE0 DUP3 ADD MLOAD DUP2 PUSH1 0x5 ADD SSTORE SWAP1 POP POP PUSH1 0x6 DUP5 SWAP1 DUP1 PUSH1 0x1 DUP2 SLOAD ADD DUP1 DUP3 SSTORE DUP1 SWAP2 POP POP PUSH1 0x1 SWAP1 SUB SWAP1 PUSH1 0x0 MSTORE PUSH1 0x20 PUSH1 0x0 KECCAK256 ADD PUSH1 0x0 SWAP1 SWAP2 SWAP1 SWAP2 SWAP1 SWAP2 POP SSTORE DUP8 PUSH1 0x1 PUSH1 0x0 DUP3 DUP3 SLOAD PUSH2 0x7E9 SWAP2 SWAP1 PUSH2 0x1FDA JUMP JUMPDEST SWAP3 POP POP DUP2 SWAP1 SSTORE POP PUSH1 0x0 PUSH2 0x2710 PUSH2 0x1F4 DUP11 PUSH2 0x803 SWAP2 SWAP1 PUSH2 0x1E84 JUMP JUMPDEST PUSH2 0x80D SWAP2 SWAP1 PUSH2 0x1EF5 JUMP JUMPDEST SWAP1 POP DUP1 PUSH1 0x2 PUSH1 0x0 DUP3 DUP3 SLOAD PUSH2 0x821 SWAP2 SWAP1 PUSH2 0x1FDA JUMP JUMPDEST SWAP3 POP POP DUP2 SWAP1 SSTORE POP CALLER PUSH20 0xFFFFFFFFFFFFFFFFFFFFFFFFFFFFFFFFFFFFFFFF AND DUP6 PUSH32 0xC00D5858322948E178AE7E778F572437CF202774E6B789F96E273F90125DCE40 DUP12 CALLVALUE DUP13 DUP13 DUP13 PUSH1 0x40 MLOAD PUSH2 0x877 SWAP6 SWAP5 SWAP4 SWAP3 SWAP2 SWAP1 PUSH2 0x200E JUMP JUMPDEST PUSH1 0x40 MLOAD DUP1 SWAP2 SUB SWAP1 LOG3 POP POP POP POP SWAP5 SWAP4 POP POP POP POP JUMP JUMPDEST CALLVALUE PUSH1 0x2 PUSH1 0x0 DUP3 DUP3 SLOAD PUSH2 0x89D SWAP2 SWAP1 PUSH2 0x1FDA JUMP JUMPDEST SWAP3 POP POP DUP2 SWAP1 SSTORE POP JUMP JUMPDEST PUSH1 0x0 DUP1 SLOAD SWAP1 PUSH2 0x100 EXP SWAP1 DIV PUSH20 0xFFFFFFFFFFFFFFFFFFFFFFFFFFFFFFFFFFFFFFFF AND PUSH20 0xFFFFFFFFFFFFFFFFFFFFFFFFFFFFFFFFFFFFFFFF AND CALLER PUSH20 0xFFFFFFFFFFFFFFFFFFFFFFFFFFFFFFFFFFFFFFFF AND EQ PUSH2 0x934 JUMPI PUSH1 0x40 MLOAD PUSH32 0x8C379A000000000000000000000000000000000000000000000000000000000 DUP2 MSTORE PUSH1 0x4 ADD PUSH2 0x92B SWAP1 PUSH2 0x20AD JUMP JUMPDEST PUSH1 0x40 MLOAD DUP1 SWAP2 SUB SWAP1 REVERT JUMPDEST PUSH1 0x1 DUP1 PUSH1 0x2 DUP2 GT ISZERO PUSH2 0x949 JUMPI PUSH2 0x948 PUSH2 0x1840 JUMP JUMPDEST JUMPDEST PUSH1 0x0 PUSH1 0x14 SWAP1 SLOAD SWAP1 PUSH2 0x100 EXP SWAP1 DIV PUSH1 0xFF AND PUSH1 0x2 DUP2 GT ISZERO PUSH2 0x96B JUMPI PUSH2 0x96A PUSH2 0x1840 JUMP JUMPDEST JUMPDEST EQ PUSH2 0x9AB JUMPI PUSH1 0x40 MLOAD PUSH32 0x8C379A000000000000000000000000000000000000000000000000000000000 DUP2 MSTORE PUSH1 0x4 ADD PUSH2 0x9A2 SWAP1 PUSH2 0x1D5D JUMP JUMPDEST PUSH1 0x40 MLOAD DUP1 SWAP2 SUB SWAP1 REVERT JUMPDEST PUSH1 0x2 PUSH1 0x0 PUSH1 0x14 PUSH2 0x100 EXP DUP2 SLOAD DUP2 PUSH1 0xFF MUL NOT AND SWAP1 DUP4 PUSH1 0x2 DUP2 GT ISZERO PUSH2 0x9D1 JUMPI PUSH2 0x9D0 PUSH2 0x1840 JUMP JUMPDEST JUMPDEST MUL OR SWAP1 SSTORE POP PUSH1 0x0 DUP1 DUP5 SLT ISZERO PUSH2 0xA29 JUMPI PUSH1 0x0 PUSH2 0x2710 DUP6 PUSH2 0x9EF SWAP1 PUSH2 0x20CD JUMP JUMPDEST DUP6 PUSH2 0x9FA SWAP2 SWAP1 PUSH2 0x1E84 JUMP JUMPDEST PUSH2 0xA04 SWAP2 SWAP1 PUSH2 0x1EF5 JUMP JUMPDEST SWAP1 POP DUP1 DUP5 GT PUSH2 0xA14 JUMPI PUSH1 0x0 PUSH2 0xA21 JUMP JUMPDEST DUP1 DUP5 PUSH2 0xA20 SWAP2 SWAP1 PUSH2 0x2115 JUMP JUMPDEST JUMPDEST SWAP2 POP POP PUSH2 0xA50 JUMP JUMPDEST PUSH2 0x2710 DUP5 DUP5 PUSH2 0xA38 SWAP2 SWAP1 PUSH2 0x1E84 JUMP JUMPDEST PUSH2 0xA42 SWAP2 SWAP1 PUSH2 0x1EF5 JUMP JUMPDEST DUP4 PUSH2 0xA4D SWAP2 SWAP1 PUSH2 0x1FDA JUMP JUMPDEST SWAP1 POP JUMPDEST PUSH32 0x5AFBBB5F838CF27E93274332D373B8886B37D218281254781DE6CE10D45ED0BE DUP5 DUP3 TIMESTAMP PUSH1 0x40 MLOAD PUSH2 0xA83 SWAP4 SWAP3 SWAP2 SWAP1 PUSH2 0x2158 JUMP JUMPDEST PUSH1 0x40 MLOAD DUP1 SWAP2 SUB SWAP1 LOG1 PUSH1 0x0 DUP1 JUMPDEST PUSH1 0x6 DUP1 SLOAD SWAP1 POP DUP2 LT ISZERO PUSH2 0xB68 JUMPI PUSH1 0x0 PUSH1 0x6 DUP3 DUP2 SLOAD DUP2 LT PUSH2 0xAB2 JUMPI PUSH2 0xAB1 PUSH2 0x218F JUMP JUMPDEST JUMPDEST SWAP1 PUSH1 0x0 MSTORE PUSH1 0x20 PUSH1 0x0 KECCAK256 ADD SLOAD SWAP1 POP PUSH1 0x5 PUSH1 0x0 DUP3 DUP2 MSTORE PUSH1 0x20 ADD SWAP1 DUP2 MSTORE PUSH1 0x20 ADD PUSH1 0x0 KECCAK256 PUSH1 0x4 ADD PUSH1 0x1 SWAP1 SLOAD SWAP1 PUSH2 0x100 EXP SWAP1 DIV PUSH1 0xFF AND DUP1 ISZERO PUSH2 0xB35 JUMPI POP PUSH1 0x2 DUP1 DUP2 GT ISZERO PUSH2 0xAFD JUMPI PUSH2 0xAFC PUSH2 0x1840 JUMP JUMPDEST JUMPDEST PUSH1 0x5 PUSH1 0x0 DUP4 DUP2 MSTORE PUSH1 0x20 ADD SWAP1 DUP2 MSTORE PUSH1 0x20 ADD PUSH1 0x0 KECCAK256 PUSH1 0x4 ADD PUSH1 0x2 SWAP1 SLOAD SWAP1 PUSH2 0x100 EXP SWAP1 DIV PUSH1 0xFF AND PUSH1 0x2 DUP2 GT ISZERO PUSH2 0xB33 JUMPI PUSH2 0xB32 PUSH2 0x1840 JUMP JUMPDEST JUMPDEST EQ JUMPDEST ISZERO PUSH2 0xB54 JUMPI PUSH2 0xB45 DUP2 DUP9 DUP7 PUSH2 0x1480 JUMP JUMPDEST DUP3 DUP1 PUSH2 0xB50 SWAP1 PUSH2 0x1F92 JUMP JUMPDEST SWAP4 POP POP JUMPDEST POP DUP1 DUP1 PUSH2 0xB60 SWAP1 PUSH2 0x1F92 JUMP JUMPDEST SWAP2 POP POP PUSH2 0xA8F JUMP JUMPDEST POP PUSH1 0x0 JUMPDEST PUSH1 0x6 DUP1 SLOAD SWAP1 POP DUP2 LT ISZERO PUSH2 0xC46 JUMPI PUSH1 0x0 PUSH1 0x6 DUP3 DUP2 SLOAD DUP2 LT PUSH2 0xB8F JUMPI PUSH2 0xB8E PUSH2 0x218F JUMP JUMPDEST JUMPDEST SWAP1 PUSH1 0x0 MSTORE PUSH1 0x20 PUSH1 0x0 KECCAK256 ADD SLOAD SWAP1 POP PUSH1 0x5 PUSH1 0x0 DUP3 DUP2 MSTORE PUSH1 0x20 ADD SWAP1 DUP2 MSTORE PUSH1 0x20 ADD PUSH1 0x0 KECCAK256 PUSH1 0x4 ADD PUSH1 0x1 SWAP1 SLOAD SWAP1 PUSH2 0x100 EXP SWAP1 DIV PUSH1 0xFF AND DUP1 ISZERO PUSH2 0xC13 JUMPI POP PUSH1 0x1 PUSH1 0x2 DUP2 GT ISZERO PUSH2 0xBDB JUMPI PUSH2 0xBDA PUSH2 0x1840 JUMP JUMPDEST JUMPDEST PUSH1 0x5 PUSH1 0x0 DUP4 DUP2 MSTORE PUSH1 0x20 ADD SWAP1 DUP2 MSTORE PUSH1 0x20 ADD PUSH1 0x0 KECCAK256 PUSH1 0x4 ADD PUSH1 0x2 SWAP1 SLOAD SWAP1 PUSH2 0x100 EXP SWAP1 DIV PUSH1 0xFF AND PUSH1 0x2 DUP2 GT ISZERO PUSH2 0xC11 JUMPI PUSH2 0xC10 PUSH2 0x1840 JUMP JUMPDEST JUMPDEST EQ JUMPDEST ISZERO PUSH2 0xC32 JUMPI PUSH2 0xC23 DUP2 DUP9 DUP7 PUSH2 0x1480 JUMP JUMPDEST DUP3 DUP1 PUSH2 0xC2E SWAP1 PUSH2 0x1F92 JUMP JUMPDEST SWAP4 POP POP JUMPDEST POP DUP1 DUP1 PUSH2 0xC3E SWAP1 PUSH2 0x1F92 JUMP JUMPDEST SWAP2 POP POP PUSH2 0xB6C JUMP JUMPDEST POP PUSH1 0x0 JUMPDEST PUSH1 0x6 DUP1 SLOAD SWAP1 POP DUP2 LT ISZERO PUSH2 0xD24 JUMPI PUSH1 0x0 PUSH1 0x6 DUP3 DUP2 SLOAD DUP2 LT PUSH2 0xC6D JUMPI PUSH2 0xC6C PUSH2 0x218F JUMP JUMPDEST JUMPDEST SWAP1 PUSH1 0x0 MSTORE PUSH1 0x20 PUSH1 0x0 KECCAK256 ADD SLOAD SWAP1 POP PUSH1 0x5 PUSH1 0x0 DUP3 DUP2 MSTORE PUSH1 0x20 ADD SWAP1 DUP2 MSTORE PUSH1 0x20 ADD PUSH1 0x0 KECCAK256 PUSH1 0x4 ADD PUSH1 0x1 SWAP1 SLOAD SWAP1 PUSH2 0x100 EXP SWAP1 DIV PUSH1 0xFF AND DUP1 ISZERO PUSH2 0xCF1 JUMPI POP PUSH1 0x0 PUSH1 0x2 DUP2 GT ISZERO PUSH2 0xCB9 JUMPI PUSH2 0xCB8 PUSH2 0x1840 JUMP JUMPDEST JUMPDEST PUSH1 0x5 PUSH1 0x0 DUP4 DUP2 MSTORE PUSH1 0x20 ADD SWAP1 DUP2 MSTORE PUSH1 0x20 ADD PUSH1 0x0 KECCAK256 PUSH1 0x4 ADD PUSH1 0x2 SWAP1 SLOAD SWAP1 PUSH2 0x100 EXP SWAP1 DIV PUSH1 0xFF AND PUSH1 0x2 DUP2 GT ISZERO PUSH2 0xCEF JUMPI PUSH2 0xCEE PUSH2 0x1840 JUMP JUMPDEST JUMPDEST EQ JUMPDEST ISZERO PUSH2 0xD10 JUMPI PUSH2 0xD01 DUP2 DUP9 DUP7 PUSH2 0x1480 JUMP JUMPDEST DUP3 DUP1 PUSH2 0xD0C SWAP1 PUSH2 0x1F92 JUMP JUMPDEST SWAP4 POP POP JUMPDEST POP DUP1 DUP1 PUSH2 0xD1C SWAP1 PUSH2 0x1F92 JUMP JUMPDEST SWAP2 POP POP PUSH2 0xC4A JUMP JUMPDEST POP PUSH1 0x0 PUSH1 0x3 SLOAD SWAP1 POP PUSH1 0x0 PUSH2 0x2710 PUSH2 0x1F4 PUSH1 0x1 SLOAD PUSH2 0xD41 SWAP2 SWAP1 PUSH2 0x1E84 JUMP JUMPDEST PUSH2 0xD4B SWAP2 SWAP1 PUSH2 0x1EF5 JUMP JUMPDEST SWAP1 POP PUSH1 0x0 DUP1 DUP3 GT PUSH2 0xD5D JUMPI PUSH1 0x0 PUSH2 0xD77 JUMP JUMPDEST DUP2 PUSH2 0x2710 DUP5 PUSH2 0xD6C SWAP2 SWAP1 PUSH2 0x1E84 JUMP JUMPDEST PUSH2 0xD76 SWAP2 SWAP1 PUSH2 0x1EF5 JUMP JUMPDEST JUMPDEST SWAP1 POP PUSH1 0x0 PUSH1 0x2 SLOAD DUP5 GT ISZERO SWAP1 POP PUSH32 0x74E9DE568443F686FAA37F289DB8D7E6AAB7DC741D27A77761795C66F2B993AC DUP6 PUSH1 0x3 SLOAD DUP7 DUP6 DUP6 PUSH1 0x40 MLOAD PUSH2 0xDBC SWAP6 SWAP5 SWAP4 SWAP3 SWAP2 SWAP1 PUSH2 0x21BE JUMP JUMPDEST PUSH1 0x40 MLOAD DUP1 SWAP2 SUB SWAP1 LOG1 PUSH1 0x0 DUP1 PUSH1 0x14 PUSH2 0x100 EXP DUP2 SLOAD DUP2 PUSH1 0xFF MUL NOT AND SWAP1 DUP4 PUSH1 0x2 DUP2 GT ISZERO PUSH2 0xDE9 JUMPI PUSH2 0xDE8 PUSH2 0x1840 JUMP JUMPDEST JUMPDEST MUL OR SWAP1 SSTORE POP POP POP POP POP POP POP POP POP POP JUMP JUMPDEST PUSH2 0x3E8 DUP2 JUMP JUMPDEST PUSH1 0x0 DUP1 PUSH1 0x0 PUSH1 0x2 SLOAD SWAP3 POP PUSH1 0x3 SLOAD SWAP2 POP PUSH1 0x0 PUSH2 0x2710 PUSH2 0x1F4 PUSH1 0x1 SLOAD PUSH2 0xE23 SWAP2 SWAP1 PUSH2 0x1E84 JUMP JUMPDEST PUSH2 0xE2D SWAP2 SWAP1 PUSH2 0x1EF5 JUMP JUMPDEST SWAP1 POP PUSH1 0x0 DUP2 GT PUSH2 0xE3E JUMPI PUSH1 0x0 PUSH2 0xE58 JUMP JUMPDEST DUP1 PUSH2 0x2710 DUP5 PUSH2 0xE4D SWAP2 SWAP1 PUSH2 0x1E84 JUMP JUMPDEST PUSH2 0xE57 SWAP2 SWAP1 PUSH2 0x1EF5 JUMP JUMPDEST JUMPDEST SWAP2 POP POP SWAP1 SWAP2 SWAP3 JUMP JUMPDEST PUSH1 0x0 DUP1 PUSH1 0x0 SWAP1 POP JUMPDEST PUSH1 0x6 DUP1 SLOAD SWAP1 POP DUP2 LT ISZERO PUSH2 0xEDE JUMPI PUSH1 0x5 PUSH1 0x0 PUSH1 0x6 DUP4 DUP2 SLOAD DUP2 LT PUSH2 0xE8D JUMPI PUSH2 0xE8C PUSH2 0x218F JUMP JUMPDEST JUMPDEST SWAP1 PUSH1 0x0 MSTORE PUSH1 0x20 PUSH1 0x0 KECCAK256 ADD SLOAD DUP2 MSTORE PUSH1 0x20 ADD SWAP1 DUP2 MSTORE PUSH1 0x20 ADD PUSH1 0x0 KECCAK256 PUSH1 0x4 ADD PUSH1 0x1 SWAP1 SLOAD SWAP1 PUSH2 0x100 EXP SWAP1 DIV PUSH1 0xFF AND ISZERO PUSH2 0xECB JUMPI DUP2 DUP1 PUSH2 0xEC7 SWAP1 PUSH2 0x1F92 JUMP JUMPDEST SWAP3 POP POP JUMPDEST DUP1 DUP1 PUSH2 0xED6 SWAP1 PUSH2 0x1F92 JUMP JUMPDEST SWAP2 POP POP PUSH2 0xE68 JUMP JUMPDEST POP SWAP1 JUMP JUMPDEST PUSH1 0x0 DUP1 SLOAD SWAP1 PUSH2 0x100 EXP SWAP1 DIV PUSH20 0xFFFFFFFFFFFFFFFFFFFFFFFFFFFFFFFFFFFFFFFF AND DUP2 JUMP JUMPDEST PUSH1 0x5 PUSH1 0x20 MSTORE DUP1 PUSH1 0x0 MSTORE PUSH1 0x40 PUSH1 0x0 KECCAK256 PUSH1 0x0 SWAP2 POP SWAP1 POP DUP1 PUSH1 0x0 ADD PUSH1 0x0 SWAP1 SLOAD SWAP1 PUSH2 0x100 EXP SWAP1 DIV PUSH20 0xFFFFFFFFFFFFFFFFFFFFFFFFFFFFFFFFFFFFFFFF AND SWAP1 DUP1 PUSH1 0x1 ADD SLOAD SWAP1 DUP1 PUSH1 0x2 ADD SLOAD SWAP1 DUP1 PUSH1 0x3 ADD SLOAD SWAP1 DUP1 PUSH1 0x4 ADD PUSH1 0x0 SWAP1 SLOAD SWAP1 PUSH2 0x100 EXP SWAP1 DIV PUSH1 0xFF AND SWAP1 DUP1 PUSH1 0x4 ADD PUSH1 0x1 SWAP1 SLOAD SWAP1 PUSH2 0x100 EXP SWAP1 DIV PUSH1 0xFF AND SWAP1 DUP1 PUSH1 0x4 ADD PUSH1 0x2 SWAP1 SLOAD SWAP1 PUSH2 0x100 EXP SWAP1 DIV PUSH1 0xFF AND SWAP1 DUP1 PUSH1 0x5 ADD SLOAD SWAP1 POP DUP9 JUMP JUMPDEST PUSH1 0x6 DUP2 JUMP JUMPDEST PUSH1 0x3 SLOAD DUP2 JUMP JUMPDEST PUSH1 0x0 DUP1 SLOAD SWAP1 PUSH2 0x100 EXP SWAP1 DIV PUSH20 0xFFFFFFFFFFFFFFFFFFFFFFFFFFFFFFFFFFFFFFFF AND PUSH20 0xFFFFFFFFFFFFFFFFFFFFFFFFFFFFFFFFFFFFFFFF AND CALLER PUSH20 0xFFFFFFFFFFFFFFFFFFFFFFFFFFFFFFFFFFFFFFFF AND EQ PUSH2 0x102E JUMPI PUSH1 0x40 MLOAD PUSH32 0x8C379A000000000000000000000000000000000000000000000000000000000 DUP2 MSTORE PUSH1 0x4 ADD PUSH2 0x1025 SWAP1 PUSH2 0x20AD JUMP JUMPDEST PUSH1 0x40 MLOAD DUP1 SWAP2 SUB SWAP1 REVERT JUMPDEST PUSH1 0x0 DUP1 PUSH1 0x2 DUP2 GT ISZERO PUSH2 0x1043 JUMPI PUSH2 0x1042 PUSH2 0x1840 JUMP JUMPDEST JUMPDEST PUSH1 0x0 PUSH1 0x14 SWAP1 SLOAD SWAP1 PUSH2 0x100 EXP SWAP1 DIV PUSH1 0xFF AND PUSH1 0x2 DUP2 GT ISZERO PUSH2 0x1065 JUMPI PUSH2 0x1064 PUSH2 0x1840 JUMP JUMPDEST JUMPDEST EQ PUSH2 0x10A5 JUMPI PUSH1 0x40 MLOAD PUSH32 0x8C379A000000000000000000000000000000000000000000000000000000000 DUP2 MSTORE PUSH1 0x4 ADD PUSH2 0x109C SWAP1 PUSH2 0x1D5D JUMP JUMPDEST PUSH1 0x40 MLOAD DUP1 SWAP2 SUB SWAP1 REVERT JUMPDEST PUSH1 0x1 PUSH1 0x0 PUSH1 0x14 PUSH2 0x100 EXP DUP2 SLOAD DUP2 PUSH1 0xFF MUL NOT AND SWAP1 DUP4 PUSH1 0x2 DUP2 GT ISZERO PUSH2 0x10CB JUMPI PUSH2 0x10CA PUSH2 0x1840 JUMP JUMPDEST JUMPDEST MUL OR SWAP1 SSTORE POP PUSH1 0x0 JUMPDEST PUSH1 0x6 DUP1 SLOAD SWAP1 POP DUP2 LT ISZERO PUSH2 0x1249 JUMPI PUSH1 0x0 PUSH1 0x6 DUP3 DUP2 SLOAD DUP2 LT PUSH2 0x10F6 JUMPI PUSH2 0x10F5 PUSH2 0x218F JUMP JUMPDEST JUMPDEST SWAP1 PUSH1 0x0 MSTORE PUSH1 0x20 PUSH1 0x0 KECCAK256 ADD SLOAD SWAP1 POP PUSH1 0x0 PUSH1 0x5 PUSH1 0x0 DUP4 DUP2 MSTORE PUSH1 0x20 ADD SWAP1 DUP2 MSTORE PUSH1 0x20 ADD PUSH1 0x0 KECCAK256 SWAP1 POP DUP1 PUSH1 0x4 ADD PUSH1 0x1 SWAP1 SLOAD SWAP1 PUSH2 0x100 EXP SWAP1 DIV PUSH1 0xFF AND PUSH2 0x1137 JUMPI POP POP PUSH2 0x1236 JUMP JUMPDEST PUSH1 0x2 DUP1 DUP2 GT ISZERO PUSH2 0x114A JUMPI PUSH2 0x1149 PUSH2 0x1840 JUMP JUMPDEST JUMPDEST DUP2 PUSH1 0x4 ADD PUSH1 0x2 SWAP1 SLOAD SWAP1 PUSH2 0x100 EXP SWAP1 DIV PUSH1 0xFF AND PUSH1 0x2 DUP2 GT ISZERO PUSH2 0x116E JUMPI PUSH2 0x116D PUSH2 0x1840 JUMP JUMPDEST JUMPDEST EQ DUP1 PUSH2 0x11AF JUMPI POP PUSH1 0x1 PUSH1 0x2 DUP2 GT ISZERO PUSH2 0x1189 JUMPI PUSH2 0x1188 PUSH2 0x1840 JUMP JUMPDEST JUMPDEST DUP2 PUSH1 0x4 ADD PUSH1 0x2 SWAP1 SLOAD SWAP1 PUSH2 0x100 EXP SWAP1 DIV PUSH1 0xFF AND PUSH1 0x2 DUP2 GT ISZERO PUSH2 0x11AD JUMPI PUSH2 0x11AC PUSH2 0x1840 JUMP JUMPDEST JUMPDEST EQ JUMPDEST ISZERO PUSH2 0x1233 JUMPI PUSH1 0x0 PUSH2 0x2710 PUSH2 0x514 DUP4 PUSH1 0x1 ADD SLOAD PUSH2 0x11CB SWAP2 SWAP1 PUSH2 0x1E84 JUMP JUMPDEST PUSH2 0x11D5 SWAP2 SWAP1 PUSH2 0x1EF5 JUMP JUMPDEST SWAP1 POP DUP1 DUP3 PUSH1 0x5 ADD DUP2 SWAP1 SSTORE POP DUP3 PUSH32 0x6FA14AE11B94DB41A3773F07E61CF83DC4BB21953DC36194B136CBD2414A9BE7 DUP4 PUSH1 0x2 ADD SLOAD DUP4 DUP6 PUSH1 0x4 ADD PUSH1 0x2 SWAP1 SLOAD SWAP1 PUSH2 0x100 EXP SWAP1 DIV PUSH1 0xFF AND PUSH1 0x40 MLOAD PUSH2 0x1229 SWAP4 SWAP3 SWAP2 SWAP1 PUSH2 0x2211 JUMP JUMPDEST PUSH1 0x40 MLOAD DUP1 SWAP2 SUB SWAP1 LOG2 POP JUMPDEST POP POP JUMPDEST DUP1 DUP1 PUSH2 0x1241 SWAP1 PUSH2 0x1F92 JUMP JUMPDEST SWAP2 POP POP PUSH2 0x10D3 JUMP JUMPDEST POP PUSH32 0xC50A97BA177C39EA2C7E22A47CE4F372A547EF09F5B4841741A6AD18074AF0BD PUSH1 0x1 SLOAD PUSH1 0x2 SLOAD TIMESTAMP PUSH1 0x40 MLOAD PUSH2 0x1281 SWAP4 SWAP3 SWAP2 SWAP1 PUSH2 0x1A71 JUMP JUMPDEST PUSH1 0x40 MLOAD DUP1 SWAP2 SUB SWAP1 LOG1 POP JUMP JUMPDEST PUSH1 0x6 DUP2 DUP2 SLOAD DUP2 LT PUSH2 0x129C JUMPI PUSH1 0x0 DUP1 REVERT JUMPDEST SWAP1 PUSH1 0x0 MSTORE PUSH1 0x20 PUSH1 0x0 KECCAK256 ADD PUSH1 0x0 SWAP2 POP SWAP1 POP SLOAD DUP2 JUMP JUMPDEST PUSH1 0x4 SLOAD DUP2 JUMP JUMPDEST PUSH2 0x12BE PUSH2 0x17CF JUMP JUMPDEST PUSH1 0x5 PUSH1 0x0 DUP4 DUP2 MSTORE PUSH1 0x20 ADD SWAP1 DUP2 MSTORE PUSH1 0x20 ADD PUSH1 0x0 KECCAK256 PUSH1 0x40 MLOAD DUP1 PUSH2 0x100 ADD PUSH1 0x40 MSTORE SWAP1 DUP2 PUSH1 0x0 DUP3 ADD PUSH1 0x0 SWAP1 SLOAD SWAP1 PUSH2 0x100 EXP SWAP1 DIV PUSH20 0xFFFFFFFFFFFFFFFFFFFFFFFFFFFFFFFFFFFFFFFF AND PUSH20 0xFFFFFFFFFFFFFFFFFFFFFFFFFFFFFFFFFFFFFFFF AND PUSH20 0xFFFFFFFFFFFFFFFFFFFFFFFFFFFFFFFFFFFFFFFF AND DUP2 MSTORE PUSH1 0x20 ADD PUSH1 0x1 DUP3 ADD SLOAD DUP2 MSTORE PUSH1 0x20 ADD PUSH1 0x2 DUP3 ADD SLOAD DUP2 MSTORE PUSH1 0x20 ADD PUSH1 0x3 DUP3 ADD SLOAD DUP2 MSTORE PUSH1 0x20 ADD PUSH1 0x4 DUP3 ADD PUSH1 0x0 SWAP1 SLOAD SWAP1 PUSH2 0x100 EXP SWAP1 DIV PUSH1 0xFF AND ISZERO ISZERO ISZERO ISZERO DUP2 MSTORE PUSH1 0x20 ADD PUSH1 0x4 DUP3 ADD PUSH1 0x1 SWAP1 SLOAD SWAP1 PUSH2 0x100 EXP SWAP1 DIV PUSH1 0xFF AND ISZERO ISZERO ISZERO ISZERO DUP2 MSTORE PUSH1 0x20 ADD PUSH1 0x4 DUP3 ADD PUSH1 0x2 SWAP1 SLOAD SWAP1 PUSH2 0x100 EXP SWAP1 DIV PUSH1 0xFF AND PUSH1 0x2 DUP2 GT ISZERO PUSH2 0x13AC JUMPI PUSH2 0x13AB PUSH2 0x1840 JUMP JUMPDEST JUMPDEST PUSH1 0x2 DUP2 GT ISZERO PUSH2 0x13BE JUMPI PUSH2 0x13BD PUSH2 0x1840 JUMP JUMPDEST JUMPDEST DUP2 MSTORE PUSH1 0x20 ADD PUSH1 0x5 DUP3 ADD SLOAD DUP2 MSTORE POP POP SWAP1 POP SWAP2 SWAP1 POP JUMP JUMPDEST PUSH1 0x2 SLOAD DUP2 JUMP JUMPDEST PUSH2 0x514 DUP2 JUMP JUMPDEST PUSH1 0x0 DUP2 PUSH2 0x13F0 JUMPI PUSH2 0x3E8 SWAP1 POP PUSH2 0x147A JUMP JUMPDEST PUSH1 0x2 DUP1 DUP2 GT ISZERO PUSH2 0x1403 JUMPI PUSH2 0x1402 PUSH2 0x1840 JUMP JUMPDEST JUMPDEST DUP4 PUSH1 0x2 DUP2 GT ISZERO PUSH2 0x1416 JUMPI PUSH2 0x1415 PUSH2 0x1840 JUMP JUMPDEST JUMPDEST SUB PUSH2 0x1425 JUMPI PUSH2 0x514 SWAP1 POP PUSH2 0x147A JUMP JUMPDEST PUSH1 0x1 PUSH1 0x2 DUP2 GT ISZERO PUSH2 0x1439 JUMPI PUSH2 0x1438 PUSH2 0x1840 JUMP JUMPDEST JUMPDEST DUP4 PUSH1 0x2 DUP2 GT ISZERO PUSH2 0x144C JUMPI PUSH2 0x144B PUSH2 0x1840 JUMP JUMPDEST JUMPDEST SUB PUSH2 0x1474 JUMPI PUSH1 0x2 PUSH2 0x3E8 PUSH2 0x514 PUSH2 0x1463 SWAP2 SWAP1 PUSH2 0x1FDA JUMP JUMPDEST PUSH2 0x146D SWAP2 SWAP1 PUSH2 0x1EF5 JUMP JUMPDEST SWAP1 POP PUSH2 0x147A JUMP JUMPDEST PUSH2 0x3E8 SWAP1 POP JUMPDEST SWAP3 SWAP2 POP POP JUMP JUMPDEST PUSH1 0x0 PUSH1 0x5 PUSH1 0x0 DUP6 DUP2 MSTORE PUSH1 0x20 ADD SWAP1 DUP2 MSTORE PUSH1 0x20 ADD PUSH1 0x0 KECCAK256 SWAP1 POP DUP1 PUSH1 0x4 ADD PUSH1 0x1 SWAP1 SLOAD SWAP1 PUSH2 0x100 EXP SWAP1 DIV PUSH1 0xFF AND PUSH2 0x14B3 JUMPI POP PUSH2 0x17CA JUMP JUMPDEST PUSH1 0x0 DUP2 PUSH1 0x4 ADD PUSH1 0x1 PUSH2 0x100 EXP DUP2 SLOAD DUP2 PUSH1 0xFF MUL NOT AND SWAP1 DUP4 ISZERO ISZERO MUL OR SWAP1 SSTORE POP PUSH1 0x0 DUP1 PUSH1 0x0 DUP6 SLT DUP1 ISZERO PUSH2 0x14F1 JUMPI POP DUP3 PUSH1 0x4 ADD PUSH1 0x0 SWAP1 SLOAD SWAP1 PUSH2 0x100 EXP SWAP1 DIV PUSH1 0xFF AND JUMPDEST ISZERO PUSH2 0x1523 JUMPI PUSH2 0x2710 DUP6 PUSH2 0x1503 SWAP1 PUSH2 0x20CD JUMP JUMPDEST DUP5 PUSH1 0x1 ADD SLOAD PUSH2 0x1512 SWAP2 SWAP1 PUSH2 0x1E84 JUMP JUMPDEST PUSH2 0x151C SWAP2 SWAP1 PUSH2 0x1EF5 JUMP JUMPDEST SWAP2 POP PUSH2 0x1568 JUMP JUMPDEST PUSH1 0x0 DUP6 SGT DUP1 ISZERO PUSH2 0x1542 JUMPI POP DUP3 PUSH1 0x4 ADD PUSH1 0x0 SWAP1 SLOAD SWAP1 PUSH2 0x100 EXP SWAP1 DIV PUSH1 0xFF AND ISZERO JUMPDEST ISZERO PUSH2 0x1567 JUMPI PUSH2 0x2710 DUP6 DUP5 PUSH1 0x1 ADD SLOAD PUSH2 0x155A SWAP2 SWAP1 PUSH2 0x1E84 JUMP JUMPDEST PUSH2 0x1564 SWAP2 SWAP1 PUSH2 0x1EF5 JUMP JUMPDEST SWAP2 POP JUMPDEST JUMPDEST PUSH1 0x0 DUP1 PUSH1 0x0 DUP5 GT ISZERO PUSH2 0x1616 JUMPI DUP4 DUP6 PUSH1 0x2 ADD SLOAD LT PUSH2 0x1596 JUMPI DUP4 DUP6 PUSH1 0x2 ADD SLOAD PUSH2 0x158F SWAP2 SWAP1 PUSH2 0x2115 JUMP JUMPDEST SWAP3 POP PUSH2 0x1611 JUMP JUMPDEST PUSH1 0x0 DUP6 PUSH1 0x2 ADD SLOAD DUP6 PUSH2 0x15A8 SWAP2 SWAP1 PUSH2 0x2115 JUMP JUMPDEST SWAP1 POP PUSH1 0x0 SWAP4 POP DUP1 PUSH1 0x2 SLOAD LT PUSH2 0x15D8 JUMPI DUP1 PUSH1 0x2 PUSH1 0x0 DUP3 DUP3 SLOAD PUSH2 0x15C9 SWAP2 SWAP1 PUSH2 0x2115 JUMP JUMPDEST SWAP3 POP POP DUP2 SWAP1 SSTORE POP DUP1 SWAP3 POP PUSH2 0x160F JUMP JUMPDEST PUSH1 0x2 SLOAD DUP2 PUSH2 0x15E6 SWAP2 SWAP1 PUSH2 0x2115 JUMP JUMPDEST SWAP2 POP PUSH1 0x2 SLOAD SWAP3 POP PUSH1 0x0 PUSH1 0x2 DUP2 SWAP1 SSTORE POP DUP2 PUSH1 0x3 PUSH1 0x0 DUP3 DUP3 SLOAD PUSH2 0x1607 SWAP2 SWAP1 PUSH2 0x1FDA JUMP JUMPDEST SWAP3 POP POP DUP2 SWAP1 SSTORE POP JUMPDEST POP JUMPDEST PUSH2 0x161E JUMP JUMPDEST DUP5 PUSH1 0x2 ADD SLOAD SWAP3 POP JUMPDEST DUP8 PUSH32 0x8AB5B36B559AB9FED828060435AFAFEDE115696040EEA67092C273DC5DE66DB1 DUP7 PUSH1 0x4 ADD PUSH1 0x2 SWAP1 SLOAD SWAP1 PUSH2 0x100 EXP SWAP1 DIV PUSH1 0xFF AND DUP7 DUP9 PUSH1 0x2 ADD SLOAD DUP9 GT ISZERO DUP7 PUSH1 0x40 MLOAD PUSH2 0x166C SWAP5 SWAP4 SWAP3 SWAP2 SWAP1 PUSH2 0x2248 JUMP JUMPDEST PUSH1 0x40 MLOAD DUP1 SWAP2 SUB SWAP1 LOG2 DUP5 PUSH1 0x0 ADD PUSH1 0x0 SWAP1 SLOAD SWAP1 PUSH2 0x100 EXP SWAP1 DIV PUSH20 0xFFFFFFFFFFFFFFFFFFFFFFFFFFFFFFFFFFFFFFFF AND PUSH20 0xFFFFFFFFFFFFFFFFFFFFFFFFFFFFFFFFFFFFFFFF AND DUP9 PUSH32 0xF8C2FF1C67816AA62A24A2DCC922AA8780CD76D90B759EB7DE8EB6D6517740C4 DUP6 DUP5 PUSH1 0x40 MLOAD PUSH2 0x16E1 SWAP3 SWAP2 SWAP1 PUSH2 0x228D JUMP JUMPDEST PUSH1 0x40 MLOAD DUP1 SWAP2 SUB SWAP1 LOG3 PUSH1 0x0 DUP4 GT ISZERO PUSH2 0x17C4 JUMPI PUSH1 0x0 DUP6 PUSH1 0x0 ADD PUSH1 0x0 SWAP1 SLOAD SWAP1 PUSH2 0x100 EXP SWAP1 DIV PUSH20 0xFFFFFFFFFFFFFFFFFFFFFFFFFFFFFFFFFFFFFFFF AND PUSH20 0xFFFFFFFFFFFFFFFFFFFFFFFFFFFFFFFFFFFFFFFF AND DUP5 PUSH1 0x40 MLOAD PUSH2 0x173C SWAP1 PUSH2 0x22E7 JUMP JUMPDEST PUSH1 0x0 PUSH1 0x40 MLOAD DUP1 DUP4 SUB DUP2 DUP6 DUP8 GAS CALL SWAP3 POP POP POP RETURNDATASIZE DUP1 PUSH1 0x0 DUP2 EQ PUSH2 0x1779 JUMPI PUSH1 0x40 MLOAD SWAP2 POP PUSH1 0x1F NOT PUSH1 0x3F RETURNDATASIZE ADD AND DUP3 ADD PUSH1 0x40 MSTORE RETURNDATASIZE DUP3 MSTORE RETURNDATASIZE PUSH1 0x0 PUSH1 0x20 DUP5 ADD RETURNDATACOPY PUSH2 0x177E JUMP JUMPDEST PUSH1 0x60 SWAP2 POP JUMPDEST POP POP SWAP1 POP DUP1 PUSH2 0x17C2 JUMPI PUSH1 0x40 MLOAD PUSH32 0x8C379A000000000000000000000000000000000000000000000000000000000 DUP2 MSTORE PUSH1 0x4 ADD PUSH2 0x17B9 SWAP1 PUSH2 0x2348 JUMP JUMPDEST PUSH1 0x40 MLOAD DUP1 SWAP2 SUB SWAP1 REVERT JUMPDEST POP JUMPDEST POP POP POP POP POP JUMPDEST POP POP POP JUMP JUMPDEST PUSH1 0x40 MLOAD DUP1 PUSH2 0x100 ADD PUSH1 0x40 MSTORE DUP1 PUSH1 0x0 PUSH20 0xFFFFFFFFFFFFFFFFFFFFFFFFFFFFFFFFFFFFFFFF AND DUP2 MSTORE PUSH1 0x20 ADD PUSH1 0x0 DUP2 MSTORE PUSH1 0x20 ADD PUSH1 0x0 DUP2 MSTORE PUSH1 0x20 ADD PUSH1 0x0 DUP2 MSTORE PUSH1 0x20 ADD PUSH1 0x0 ISZERO ISZERO DUP2 MSTORE PUSH1 0x20 ADD PUSH1 0x0 ISZERO ISZERO DUP2 MSTORE PUSH1 0x20 ADD PUSH1 0x0 PUSH1 0x2 DUP2 GT ISZERO PUSH2 0x1833 JUMPI PUSH2 0x1832 PUSH2 0x1840 JUMP JUMPDEST JUMPDEST DUP2 MSTORE PUSH1 0x20 ADD PUSH1 0x0 DUP2 MSTORE POP SWAP1 JUMP JUMPDEST PUSH32 0x4E487B7100000000000000000000000000000000000000000000000000000000 PUSH1 0x0 MSTORE PUSH1 0x21 PUSH1 0x4 MSTORE PUSH1 0x24 PUSH1 0x0 REVERT JUMPDEST PUSH1 0x3 DUP2 LT PUSH2 0x1880 JUMPI PUSH2 0x187F PUSH2 0x1840 JUMP JUMPDEST JUMPDEST POP JUMP JUMPDEST PUSH1 0x0 DUP2 SWAP1 POP PUSH2 0x1891 DUP3 PUSH2 0x186F JUMP JUMPDEST SWAP2 SWAP1 POP JUMP JUMPDEST PUSH1 0x0 PUSH2 0x18A1 DUP3 PUSH2 0x1883 JUMP JUMPDEST SWAP1 POP SWAP2 SWAP1 POP JUMP JUMPDEST PUSH2 0x18B1 DUP2 PUSH2 0x1896 JUMP JUMPDEST DUP3 MSTORE POP POP JUMP JUMPDEST PUSH1 0x0 PUSH1 0x20 DUP3 ADD SWAP1 POP PUSH2 0x18CC PUSH1 0x0 DUP4 ADD DUP5 PUSH2 0x18A8 JUMP JUMPDEST SWAP3 SWAP2 POP POP JUMP JUMPDEST PUSH1 0x0 DUP2 SWAP1 POP SWAP2 SWAP1 POP JUMP JUMPDEST PUSH2 0x18E5 DUP2 PUSH2 0x18D2 JUMP JUMPDEST DUP3 MSTORE POP POP JUMP JUMPDEST PUSH1 0x0 PUSH1 0x20 DUP3 ADD SWAP1 POP PUSH2 0x1900 PUSH1 0x0 DUP4 ADD DUP5 PUSH2 0x18DC JUMP JUMPDEST SWAP3 SWAP2 POP POP JUMP JUMPDEST PUSH1 0x0 DUP1 REVERT JUMPDEST PUSH2 0x1914 DUP2 PUSH2 0x18D2 JUMP JUMPDEST DUP2 EQ PUSH2 0x191F JUMPI PUSH1 0x0 DUP1 REVERT JUMPDEST POP JUMP JUMPDEST PUSH1 0x0 DUP2 CALLDATALOAD SWAP1 POP PUSH2 0x1931 DUP2 PUSH2 0x190B JUMP JUMPDEST SWAP3 SWAP2 POP POP JUMP JUMPDEST PUSH1 0x0 DUP2 ISZERO ISZERO SWAP1 POP SWAP2 SWAP1 POP JUMP JUMPDEST PUSH2 0x194C DUP2 PUSH2 0x1937 JUMP JUMPDEST DUP2 EQ PUSH2 0x1957 JUMPI PUSH1 0x0 DUP1 REVERT JUMPDEST POP JUMP JUMPDEST PUSH1 0x0 DUP2 CALLDATALOAD SWAP1 POP PUSH2 0x1969 DUP2 PUSH2 0x1943 JUMP JUMPDEST SWAP3 SWAP2 POP POP JUMP JUMPDEST PUSH1 0x3 DUP2 LT PUSH2 0x197C JUMPI PUSH1 0x0 DUP1 REVERT JUMPDEST POP JUMP JUMPDEST PUSH1 0x0 DUP2 CALLDATALOAD SWAP1 POP PUSH2 0x198E DUP2 PUSH2 0x196F JUMP JUMPDEST SWAP3 SWAP2 POP POP JUMP JUMPDEST PUSH1 0x0 DUP1 PUSH1 0x0 DUP1 PUSH1 0x80 DUP6 DUP8 SUB SLT ISZERO PUSH2 0x19AE JUMPI PUSH2 0x19AD PUSH2 0x1906 JUMP JUMPDEST JUMPDEST PUSH1 0x0 PUSH2 0x19BC DUP8 DUP3 DUP9 ADD PUSH2 0x1922 JUMP JUMPDEST SWAP5 POP POP PUSH1 0x20 PUSH2 0x19CD DUP8 DUP3 DUP9 ADD PUSH2 0x1922 JUMP JUMPDEST SWAP4 POP POP PUSH1 0x40 PUSH2 0x19DE DUP8 DUP3 DUP9 ADD PUSH2 0x195A JUMP JUMPDEST SWAP3 POP POP PUSH1 0x60 PUSH2 0x19EF DUP8 DUP3 DUP9 ADD PUSH2 0x197F JUMP JUMPDEST SWAP2 POP POP SWAP3 SWAP6 SWAP2 SWAP5 POP SWAP3 POP JUMP JUMPDEST PUSH1 0x0 DUP2 SWAP1 POP SWAP2 SWAP1 POP JUMP JUMPDEST PUSH2 0x1A0E DUP2 PUSH2 0x19FB JUMP JUMPDEST DUP2 EQ PUSH2 0x1A19 JUMPI PUSH1 0x0 DUP1 REVERT JUMPDEST POP JUMP JUMPDEST PUSH1 0x0 DUP2 CALLDATALOAD SWAP1 POP PUSH2 0x1A2B DUP2 PUSH2 0x1A05 JUMP JUMPDEST SWAP3 SWAP2 POP POP JUMP JUMPDEST PUSH1 0x0 DUP1 PUSH1 0x40 DUP4 DUP6 SUB SLT ISZERO PUSH2 0x1A48 JUMPI PUSH2 0x1A47 PUSH2 0x1906 JUMP JUMPDEST JUMPDEST PUSH1 0x0 PUSH2 0x1A56 DUP6 DUP3 DUP7 ADD PUSH2 0x1A1C JUMP JUMPDEST SWAP3 POP POP PUSH1 0x20 PUSH2 0x1A67 DUP6 DUP3 DUP7 ADD PUSH2 0x1922 JUMP JUMPDEST SWAP2 POP POP SWAP3 POP SWAP3 SWAP1 POP JUMP JUMPDEST PUSH1 0x0 PUSH1 0x60 DUP3 ADD SWAP1 POP PUSH2 0x1A86 PUSH1 0x0 DUP4 ADD DUP7 PUSH2 0x18DC JUMP JUMPDEST PUSH2 0x1A93 PUSH1 0x20 DUP4 ADD DUP6 PUSH2 0x18DC JUMP JUMPDEST PUSH2 0x1AA0 PUSH1 0x40 DUP4 ADD DUP5 PUSH2 0x18DC JUMP JUMPDEST SWAP5 SWAP4 POP POP POP POP JUMP JUMPDEST PUSH1 0x0 PUSH20 0xFFFFFFFFFFFFFFFFFFFFFFFFFFFFFFFFFFFFFFFF DUP3 AND SWAP1 POP SWAP2 SWAP1 POP JUMP JUMPDEST PUSH1 0x0 PUSH2 0x1AD3 DUP3 PUSH2 0x1AA8 JUMP JUMPDEST SWAP1 POP SWAP2 SWAP1 POP JUMP JUMPDEST PUSH2 0x1AE3 DUP2 PUSH2 0x1AC8 JUMP JUMPDEST DUP3 MSTORE POP POP JUMP JUMPDEST PUSH1 0x0 PUSH1 0x20 DUP3 ADD SWAP1 POP PUSH2 0x1AFE PUSH1 0x0 DUP4 ADD DUP5 PUSH2 0x1ADA JUMP JUMPDEST SWAP3 SWAP2 POP POP JUMP JUMPDEST PUSH1 0x0 PUSH1 0x20 DUP3 DUP5 SUB SLT ISZERO PUSH2 0x1B1A JUMPI PUSH2 0x1B19 PUSH2 0x1906 JUMP JUMPDEST JUMPDEST PUSH1 0x0 PUSH2 0x1B28 DUP5 DUP3 DUP6 ADD PUSH2 0x1922 JUMP JUMPDEST SWAP2 POP POP SWAP3 SWAP2 POP POP JUMP JUMPDEST PUSH2 0x1B3A DUP2 PUSH2 0x1937 JUMP JUMPDEST DUP3 MSTORE POP POP JUMP JUMPDEST PUSH1 0x3 DUP2 LT PUSH2 0x1B51 JUMPI PUSH2 0x1B50 PUSH2 0x1840 JUMP JUMPDEST JUMPDEST POP JUMP JUMPDEST PUSH1 0x0 DUP2 SWAP1 POP PUSH2 0x1B62 DUP3 PUSH2 0x1B40 JUMP JUMPDEST SWAP2 SWAP1 POP JUMP JUMPDEST PUSH1 0x0 PUSH2 0x1B72 DUP3 PUSH2 0x1B54 JUMP JUMPDEST SWAP1 POP SWAP2 SWAP1 POP JUMP JUMPDEST PUSH2 0x1B82 DUP2 PUSH2 0x1B67 JUMP JUMPDEST DUP3 MSTORE POP POP JUMP JUMPDEST PUSH1 0x0 PUSH2 0x100 DUP3 ADD SWAP1 POP PUSH2 0x1B9E PUSH1 0x0 DUP4 ADD DUP12 PUSH2 0x1ADA JUMP JUMPDEST PUSH2 0x1BAB PUSH1 0x20 DUP4 ADD DUP11 PUSH2 0x18DC JUMP JUMPDEST PUSH2 0x1BB8 PUSH1 0x40 DUP4 ADD DUP10 PUSH2 0x18DC JUMP JUMPDEST PUSH2 0x1BC5 PUSH1 0x60 DUP4 ADD DUP9 PUSH2 0x18DC JUMP JUMPDEST PUSH2 0x1BD2 PUSH1 0x80 DUP4 ADD DUP8 PUSH2 0x1B31 JUMP JUMPDEST PUSH2 0x1BDF PUSH1 0xA0 DUP4 ADD DUP7 PUSH2 0x1B31 JUMP JUMPDEST PUSH2 0x1BEC PUSH1 0xC0 DUP4 ADD DUP6 PUSH2 0x1B79 JUMP JUMPDEST PUSH2 0x1BF9 PUSH1 0xE0 DUP4 ADD DUP5 PUSH2 0x18DC JUMP JUMPDEST SWAP10 SWAP9 POP POP POP POP POP POP POP POP POP JUMP JUMPDEST PUSH2 0x1C0F DUP2 PUSH2 0x1AC8 JUMP JUMPDEST DUP3 MSTORE POP POP JUMP JUMPDEST PUSH2 0x1C1E DUP2 PUSH2 0x18D2 JUMP JUMPDEST DUP3 MSTORE POP POP JUMP JUMPDEST PUSH2 0x1C2D DUP2 PUSH2 0x1937 JUMP JUMPDEST DUP3 MSTORE POP POP JUMP JUMPDEST PUSH2 0x1C3C DUP2 PUSH2 0x1B67 JUMP JUMPDEST DUP3 MSTORE POP POP JUMP JUMPDEST PUSH2 0x100 DUP3 ADD PUSH1 0x0 DUP3 ADD MLOAD PUSH2 0x1C59 PUSH1 0x0 DUP6 ADD DUP3 PUSH2 0x1C06 JUMP JUMPDEST POP PUSH1 0x20 DUP3 ADD MLOAD PUSH2 0x1C6C PUSH1 0x20 DUP6 ADD DUP3 PUSH2 0x1C15 JUMP JUMPDEST POP PUSH1 0x40 DUP3 ADD MLOAD PUSH2 0x1C7F PUSH1 0x40 DUP6 ADD DUP3 PUSH2 0x1C15 JUMP JUMPDEST POP PUSH1 0x60 DUP3 ADD MLOAD PUSH2 0x1C92 PUSH1 0x60 DUP6 ADD DUP3 PUSH2 0x1C15 JUMP JUMPDEST POP PUSH1 0x80 DUP3 ADD MLOAD PUSH2 0x1CA5 PUSH1 0x80 DUP6 ADD DUP3 PUSH2 0x1C24 JUMP JUMPDEST POP PUSH1 0xA0 DUP3 ADD MLOAD PUSH2 0x1CB8 PUSH1 0xA0 DUP6 ADD DUP3 PUSH2 0x1C24 JUMP JUMPDEST POP PUSH1 0xC0 DUP3 ADD MLOAD PUSH2 0x1CCB PUSH1 0xC0 DUP6 ADD DUP3 PUSH2 0x1C33 JUMP JUMPDEST POP PUSH1 0xE0 DUP3 ADD MLOAD PUSH2 0x1CDE PUSH1 0xE0 DUP6 ADD DUP3 PUSH2 0x1C15 JUMP JUMPDEST POP POP POP POP JUMP JUMPDEST PUSH1 0x0 PUSH2 0x100 DUP3 ADD SWAP1 POP PUSH2 0x1CFA PUSH1 0x0 DUP4 ADD DUP5 PUSH2 0x1C42 JUMP JUMPDEST SWAP3 SWAP2 POP POP JUMP JUMPDEST PUSH1 0x0 DUP3 DUP3 MSTORE PUSH1 0x20 DUP3 ADD SWAP1 POP SWAP3 SWAP2 POP POP JUMP JUMPDEST PUSH32 0x57726F6E67206D61726B65742073746174650000000000000000000000000000 PUSH1 0x0 DUP3 ADD MSTORE POP JUMP JUMPDEST PUSH1 0x0 PUSH2 0x1D47 PUSH1 0x12 DUP4 PUSH2 0x1D00 JUMP JUMPDEST SWAP2 POP PUSH2 0x1D52 DUP3 PUSH2 0x1D11 JUMP JUMPDEST PUSH1 0x20 DUP3 ADD SWAP1 POP SWAP2 SWAP1 POP JUMP JUMPDEST PUSH1 0x0 PUSH1 0x20 DUP3 ADD SWAP1 POP DUP2 DUP2 SUB PUSH1 0x0 DUP4 ADD MSTORE PUSH2 0x1D76 DUP2 PUSH2 0x1D3A JUMP JUMPDEST SWAP1 POP SWAP2 SWAP1 POP JUMP JUMPDEST PUSH32 0x426164206C657665726167650000000000000000000000000000000000000000 PUSH1 0x0 DUP3 ADD MSTORE POP JUMP JUMPDEST PUSH1 0x0 PUSH2 0x1DB3 PUSH1 0xC DUP4 PUSH2 0x1D00 JUMP JUMPDEST SWAP2 POP PUSH2 0x1DBE DUP3 PUSH2 0x1D7D JUMP JUMPDEST PUSH1 0x20 DUP3 ADD SWAP1 POP SWAP2 SWAP1 POP JUMP JUMPDEST PUSH1 0x0 PUSH1 0x20 DUP3 ADD SWAP1 POP DUP2 DUP2 SUB PUSH1 0x0 DUP4 ADD MSTORE PUSH2 0x1DE2 DUP2 PUSH2 0x1DA6 JUMP JUMPDEST SWAP1 POP SWAP2 SWAP1 POP JUMP JUMPDEST PUSH32 0x5A65726F206E6F74696F6E616C00000000000000000000000000000000000000 PUSH1 0x0 DUP3 ADD MSTORE POP JUMP JUMPDEST PUSH1 0x0 PUSH2 0x1E1F PUSH1 0xD DUP4 PUSH2 0x1D00 JUMP JUMPDEST SWAP2 POP PUSH2 0x1E2A DUP3 PUSH2 0x1DE9 JUMP JUMPDEST PUSH1 0x20 DUP3 ADD SWAP1 POP SWAP2 SWAP1 POP JUMP JUMPDEST PUSH1 0x0 PUSH1 0x20 DUP3 ADD SWAP1 POP DUP2 DUP2 SUB PUSH1 0x0 DUP4 ADD MSTORE PUSH2 0x1E4E DUP2 PUSH2 0x1E12 JUMP JUMPDEST SWAP1 POP SWAP2 SWAP1 POP JUMP JUMPDEST PUSH32 0x4E487B7100000000000000000000000000000000000000000000000000000000 PUSH1 0x0 MSTORE PUSH1 0x11 PUSH1 0x4 MSTORE PUSH1 0x24 PUSH1 0x0 REVERT JUMPDEST PUSH1 0x0 PUSH2 0x1E8F DUP3 PUSH2 0x18D2 JUMP JUMPDEST SWAP2 POP PUSH2 0x1E9A DUP4 PUSH2 0x18D2 JUMP JUMPDEST SWAP3 POP DUP3 DUP3 MUL PUSH2 0x1EA8 DUP2 PUSH2 0x18D2 JUMP JUMPDEST SWAP2 POP DUP3 DUP3 DIV DUP5 EQ DUP4 ISZERO OR PUSH2 0x1EBF JUMPI PUSH2 0x1EBE PUSH2 0x1E55 JUMP JUMPDEST JUMPDEST POP SWAP3 SWAP2 POP POP JUMP JUMPDEST PUSH32 0x4E487B7100000000000000000000000000000000000000000000000000000000 PUSH1 0x0 MSTORE PUSH1 0x12 PUSH1 0x4 MSTORE PUSH1 0x24 PUSH1 0x0 REVERT JUMPDEST PUSH1 0x0 PUSH2 0x1F00 DUP3 PUSH2 0x18D2 JUMP JUMPDEST SWAP2 POP PUSH2 0x1F0B DUP4 PUSH2 0x18D2 JUMP JUMPDEST SWAP3 POP DUP3 PUSH2 0x1F1B JUMPI PUSH2 0x1F1A PUSH2 0x1EC6 JUMP JUMPDEST JUMPDEST DUP3 DUP3 DIV SWAP1 POP SWAP3 SWAP2 POP POP JUMP JUMPDEST PUSH32 0x496E73756666696369656E74206D617267696E00000000000000000000000000 PUSH1 0x0 DUP3 ADD MSTORE POP JUMP JUMPDEST PUSH1 0x0 PUSH2 0x1F5C PUSH1 0x13 DUP4 PUSH2 0x1D00 JUMP JUMPDEST SWAP2 POP PUSH2 0x1F67 DUP3 PUSH2 0x1F26 JUMP JUMPDEST PUSH1 0x20 DUP3 ADD SWAP1 POP SWAP2 SWAP1 POP JUMP JUMPDEST PUSH1 0x0 PUSH1 0x20 DUP3 ADD SWAP1 POP DUP2 DUP2 SUB PUSH1 0x0 DUP4 ADD MSTORE PUSH2 0x1F8B DUP2 PUSH2 0x1F4F JUMP JUMPDEST SWAP1 POP SWAP2 SWAP1 POP JUMP JUMPDEST PUSH1 0x0 PUSH2 0x1F9D DUP3 PUSH2 0x18D2 JUMP JUMPDEST SWAP2 POP PUSH32 0xFFFFFFFFFFFFFFFFFFFFFFFFFFFFFFFFFFFFFFFFFFFFFFFFFFFFFFFFFFFFFFFF DUP3 SUB PUSH2 0x1FCF JUMPI PUSH2 0x1FCE PUSH2 0x1E55 JUMP JUMPDEST JUMPDEST PUSH1 0x1 DUP3 ADD SWAP1 POP SWAP2 SWAP1 POP JUMP JUMPDEST PUSH1 0x0 PUSH2 0x1FE5 DUP3 PUSH2 0x18D2 JUMP JUMPDEST SWAP2 POP PUSH2 0x1FF0 DUP4 PUSH2 0x18D2 JUMP JUMPDEST SWAP3 POP DUP3 DUP3 ADD SWAP1 POP DUP1 DUP3 GT ISZERO PUSH2 0x2008 JUMPI PUSH2 0x2007 PUSH2 0x1E55 JUMP JUMPDEST JUMPDEST SWAP3 SWAP2 POP POP JUMP JUMPDEST PUSH1 0x0 PUSH1 0xA0 DUP3 ADD SWAP1 POP PUSH2 0x2023 PUSH1 0x0 DUP4 ADD DUP9 PUSH2 0x18DC JUMP JUMPDEST PUSH2 0x2030 PUSH1 0x20 DUP4 ADD DUP8 PUSH2 0x18DC JUMP JUMPDEST PUSH2 0x203D PUSH1 0x40 DUP4 ADD DUP7 PUSH2 0x18DC JUMP JUMPDEST PUSH2 0x204A PUSH1 0x60 DUP4 ADD DUP6 PUSH2 0x1B31 JUMP JUMPDEST PUSH2 0x2057 PUSH1 0x80 DUP4 ADD DUP5 PUSH2 0x1B79 JUMP JUMPDEST SWAP7 SWAP6 POP POP POP POP POP POP JUMP JUMPDEST PUSH32 0x4E6F74206F776E65720000000000000000000000000000000000000000000000 PUSH1 0x0 DUP3 ADD MSTORE POP JUMP JUMPDEST PUSH1 0x0 PUSH2 0x2097 PUSH1 0x9 DUP4 PUSH2 0x1D00 JUMP JUMPDEST SWAP2 POP PUSH2 0x20A2 DUP3 PUSH2 0x2061 JUMP JUMPDEST PUSH1 0x20 DUP3 ADD SWAP1 POP SWAP2 SWAP1 POP JUMP JUMPDEST PUSH1 0x0 PUSH1 0x20 DUP3 ADD SWAP1 POP DUP2 DUP2 SUB PUSH1 0x0 DUP4 ADD MSTORE PUSH2 0x20C6 DUP2 PUSH2 0x208A JUMP JUMPDEST SWAP1 POP SWAP2 SWAP1 POP JUMP JUMPDEST PUSH1 0x0 PUSH2 0x20D8 DUP3 PUSH2 0x19FB JUMP JUMPDEST SWAP2 POP PUSH32 0x8000000000000000000000000000000000000000000000000000000000000000 DUP3 SUB PUSH2 0x210A JUMPI PUSH2 0x2109 PUSH2 0x1E55 JUMP JUMPDEST JUMPDEST DUP2 PUSH1 0x0 SUB SWAP1 POP SWAP2 SWAP1 POP JUMP JUMPDEST PUSH1 0x0 PUSH2 0x2120 DUP3 PUSH2 0x18D2 JUMP JUMPDEST SWAP2 POP PUSH2 0x212B DUP4 PUSH2 0x18D2 JUMP JUMPDEST SWAP3 POP DUP3 DUP3 SUB SWAP1 POP DUP2 DUP2 GT ISZERO PUSH2 0x2143 JUMPI PUSH2 0x2142 PUSH2 0x1E55 JUMP JUMPDEST JUMPDEST SWAP3 SWAP2 POP POP JUMP JUMPDEST PUSH2 0x2152 DUP2 PUSH2 0x19FB JUMP JUMPDEST DUP3 MSTORE POP POP JUMP JUMPDEST PUSH1 0x0 PUSH1 0x60 DUP3 ADD SWAP1 POP PUSH2 0x216D PUSH1 0x0 DUP4 ADD DUP7 PUSH2 0x2149 JUMP JUMPDEST PUSH2 0x217A PUSH1 0x20 DUP4 ADD DUP6 PUSH2 0x18DC JUMP JUMPDEST PUSH2 0x2187 PUSH1 0x40 DUP4 ADD DUP5 PUSH2 0x18DC JUMP JUMPDEST SWAP5 SWAP4 POP POP POP POP JUMP JUMPDEST PUSH32 0x4E487B7100000000000000000000000000000000000000000000000000000000 PUSH1 0x0 MSTORE PUSH1 0x32 PUSH1 0x4 MSTORE PUSH1 0x24 PUSH1 0x0 REVERT JUMPDEST PUSH1 0x0 PUSH1 0xA0 DUP3 ADD SWAP1 POP PUSH2 0x21D3 PUSH1 0x0 DUP4 ADD DUP9 PUSH2 0x18DC JUMP JUMPDEST PUSH2 0x21E0 PUSH1 0x20 DUP4 ADD DUP8 PUSH2 0x18DC JUMP JUMPDEST PUSH2 0x21ED PUSH1 0x40 DUP4 ADD DUP7 PUSH2 0x18DC JUMP JUMPDEST PUSH2 0x21FA PUSH1 0x60 DUP4 ADD DUP6 PUSH2 0x18DC JUMP JUMPDEST PUSH2 0x2207 PUSH1 0x80 DUP4 ADD DUP5 PUSH2 0x1B31 JUMP JUMPDEST SWAP7 SWAP6 POP POP POP POP POP POP JUMP JUMPDEST PUSH1 0x0 PUSH1 0x60 DUP3 ADD SWAP1 POP PUSH2 0x2226 PUSH1 0x0 DUP4 ADD DUP7 PUSH2 0x18DC JUMP JUMPDEST PUSH2 0x2233 PUSH1 0x20 DUP4 ADD DUP6 PUSH2 0x18DC JUMP JUMPDEST PUSH2 0x2240 PUSH1 0x40 DUP4 ADD DUP5 PUSH2 0x1B79 JUMP JUMPDEST SWAP5 SWAP4 POP POP POP POP JUMP JUMPDEST PUSH1 0x0 PUSH1 0x80 DUP3 ADD SWAP1 POP PUSH2 0x225D PUSH1 0x0 DUP4 ADD DUP8 PUSH2 0x1B79 JUMP JUMPDEST PUSH2 0x226A PUSH1 0x20 DUP4 ADD DUP7 PUSH2 0x18DC JUMP JUMPDEST PUSH2 0x2277 PUSH1 0x40 DUP4 ADD DUP6 PUSH2 0x1B31 JUMP JUMPDEST PUSH2 0x2284 PUSH1 0x60 DUP4 ADD DUP5 PUSH2 0x18DC JUMP JUMPDEST SWAP6 SWAP5 POP POP POP POP POP JUMP JUMPDEST PUSH1 0x0 PUSH1 0x40 DUP3 ADD SWAP1 POP PUSH2 0x22A2 PUSH1 0x0 DUP4 ADD DUP6 PUSH2 0x18DC JUMP JUMPDEST PUSH2 0x22AF PUSH1 0x20 DUP4 ADD DUP5 PUSH2 0x18DC JUMP JUMPDEST SWAP4 SWAP3 POP POP POP JUMP JUMPDEST PUSH1 0x0 DUP2 SWAP1 POP SWAP3 SWAP2 POP POP JUMP JUMPDEST POP JUMP JUMPDEST PUSH1 0x0 PUSH2 0x22D1 PUSH1 0x0 DUP4 PUSH2 0x22B6 JUMP JUMPDEST SWAP2 POP PUSH2 0x22DC DUP3 PUSH2 0x22C1 JUMP JUMPDEST PUSH1 0x0 DUP3 ADD SWAP1 POP SWAP2 SWAP1 POP JUMP JUMPDEST PUSH1 0x0 PUSH2 0x22F2 DUP3 PUSH2 0x22C4 JUMP JUMPDEST SWAP2 POP DUP2 SWAP1 POP SWAP2 SWAP1 POP JUMP JUMPDEST PUSH32 0x5472616E73666572206661696C65640000000000000000000000000000000000 PUSH1 0x0 DUP3 ADD MSTORE POP JUMP JUMPDEST PUSH1 0x0 PUSH2 0x2332 PUSH1 0xF DUP4 PUSH2 0x1D00 JUMP JUMPDEST SWAP2 POP PUSH2 0x233D DUP3 PUSH2 0x22FC JUMP JUMPDEST PUSH1 0x20 DUP3 ADD SWAP1 POP SWAP2 SWAP1 POP JUMP JUMPDEST PUSH1 0x0 PUSH1 0x20 DUP3 ADD SWAP1 POP DUP2 DUP2 SUB PUSH1 0x0 DUP4 ADD MSTORE PUSH2 0x2361 DUP2 PUSH2 0x2325 JUMP JUMPDEST SWAP1 POP SWAP2 SWAP1 POP JUMP INVALID LOG2 PUSH5 0x6970667358 0x22 SLT KECCAK256 0xC2 0x27 0x4A SWAP3 DUP6 0xB7 0xDC PUSH28 0x412E502532DE5B030DA9BC09CB59C829496A24DA94EA29A864736F6C PUSH4 0x43000814 STOP CALLER "},"methodIdentifiers":{"BASE_IMR_BPS()":"6b91f124","BPS()":"249d39e9","GAP_IMR_BPS()":"f1a4ab77","MAX_LEVERAGE()":"9b45ec97","SHIELD_BPS()":"2734156a","badDebt()":"bbcac557","closeMarket()":"c511ed5e","fundShield()":"4d96faac","getOpenPositionCount()":"7fad9e17","getPosition(uint256)":"eb02c301","getShieldStatus()":"70e3a16e","marketState()":"08fb1b77","openPosition(uint256,uint256,bool,uint8)":"4be5126b","openPositionIds(uint256)":"d05ead4d","owner()":"8da5cb5b","positionCount()":"e7702d05","positions(uint256)":"99fbab88","shieldFund()":"eea04732","totalOI()":"443295dc","triggerReopen(int256,uint256)":"60b7cfc6"}}}}}